{
  "address": "0x0551e975503d039dBbe348026777fba622066016",
  "abi": [
    {
      "inputs": [
        {
          "internalType": "address",
          "name": "initialOwner_",
          "type": "address"
        },
        {
          "internalType": "address",
          "name": "tokenAddress_",
          "type": "address"
        },
        {
          "internalType": "address",
          "name": "recipientAddress_",
          "type": "address"
        }
      ],
      "stateMutability": "nonpayable",
      "type": "constructor"
    },
    {
      "inputs": [
        {
          "internalType": "address",
          "name": "target",
          "type": "address"
        }
      ],
      "name": "AddressEmptyCode",
      "type": "error"
    },
    {
      "inputs": [
        {
          "internalType": "address",
          "name": "account",
          "type": "address"
        }
      ],
      "name": "AddressInsufficientBalance",
      "type": "error"
    },
    {
      "inputs": [],
      "name": "FailedInnerCall",
      "type": "error"
    },
    {
      "inputs": [
        {
          "internalType": "address",
          "name": "owner",
          "type": "address"
        }
      ],
      "name": "OwnableInvalidOwner",
      "type": "error"
    },
    {
      "inputs": [
        {
          "internalType": "address",
          "name": "account",
          "type": "address"
        }
      ],
      "name": "OwnableUnauthorizedAccount",
      "type": "error"
    },
    {
      "inputs": [],
      "name": "ReentrancyGuardReentrantCall",
      "type": "error"
    },
    {
      "inputs": [
        {
          "internalType": "address",
          "name": "token",
          "type": "address"
        }
      ],
      "name": "SafeERC20FailedOperation",
      "type": "error"
    },
    {
      "anonymous": false,
      "inputs": [
        {
          "indexed": true,
          "internalType": "address",
          "name": "previousOwner",
          "type": "address"
        },
        {
          "indexed": true,
          "internalType": "address",
          "name": "newOwner",
          "type": "address"
        }
      ],
      "name": "OwnershipTransferred",
      "type": "event"
    },
    {
      "inputs": [],
      "name": "avalableToClaimGlobal",
      "outputs": [
        {
          "internalType": "uint256",
          "name": "",
          "type": "uint256"
        }
      ],
      "stateMutability": "view",
      "type": "function"
    },
    {
      "inputs": [
        {
          "internalType": "address",
          "name": "recipientAddress_",
          "type": "address"
        }
      ],
      "name": "changeRecipientAddress",
      "outputs": [],
      "stateMutability": "nonpayable",
      "type": "function"
    },
    {
      "inputs": [],
      "name": "claim",
      "outputs": [],
      "stateMutability": "nonpayable",
      "type": "function"
    },
    {
      "inputs": [],
      "name": "claimed",
      "outputs": [
        {
          "internalType": "uint256",
          "name": "",
          "type": "uint256"
        }
      ],
      "stateMutability": "view",
      "type": "function"
    },
    {
      "inputs": [],
      "name": "cliff",
      "outputs": [
        {
          "internalType": "uint256",
          "name": "",
          "type": "uint256"
        }
      ],
      "stateMutability": "view",
      "type": "function"
    },
    {
      "inputs": [],
      "name": "distributionAmount",
      "outputs": [
        {
          "internalType": "uint256",
          "name": "",
          "type": "uint256"
        }
      ],
      "stateMutability": "view",
      "type": "function"
    },
    {
      "inputs": [],
      "name": "nextUnlock",
      "outputs": [
        {
          "internalType": "uint256",
          "name": "",
          "type": "uint256"
        }
      ],
      "stateMutability": "view",
      "type": "function"
    },
    {
      "inputs": [],
      "name": "owner",
      "outputs": [
        {
          "internalType": "address",
          "name": "",
          "type": "address"
        }
      ],
      "stateMutability": "view",
      "type": "function"
    },
    {
      "inputs": [],
      "name": "percentDeniminator",
      "outputs": [
        {
          "internalType": "uint256",
          "name": "",
          "type": "uint256"
        }
      ],
      "stateMutability": "view",
      "type": "function"
    },
    {
      "inputs": [],
      "name": "recipientAddress",
      "outputs": [
        {
          "internalType": "address",
          "name": "",
          "type": "address"
        }
      ],
      "stateMutability": "view",
      "type": "function"
    },
    {
      "inputs": [],
      "name": "renounceOwnership",
      "outputs": [],
      "stateMutability": "nonpayable",
      "type": "function"
    },
    {
      "inputs": [],
      "name": "startUnlock",
      "outputs": [
        {
          "internalType": "uint256",
          "name": "",
          "type": "uint256"
        }
      ],
      "stateMutability": "view",
      "type": "function"
    },
    {
      "inputs": [],
      "name": "startVesting",
      "outputs": [],
      "stateMutability": "nonpayable",
      "type": "function"
    },
    {
      "inputs": [],
      "name": "tgePercent",
      "outputs": [
        {
          "internalType": "uint256",
          "name": "",
          "type": "uint256"
        }
      ],
      "stateMutability": "view",
      "type": "function"
    },
    {
      "inputs": [
        {
          "internalType": "address",
          "name": "newOwner",
          "type": "address"
        }
      ],
      "name": "transferOwnership",
      "outputs": [],
      "stateMutability": "nonpayable",
      "type": "function"
    },
    {
      "inputs": [],
      "name": "unlockPercent",
      "outputs": [
        {
          "internalType": "uint256",
          "name": "",
          "type": "uint256"
        }
      ],
      "stateMutability": "view",
      "type": "function"
    },
    {
      "inputs": [],
      "name": "unlockPeriod",
      "outputs": [
        {
          "internalType": "uint256",
          "name": "",
          "type": "uint256"
        }
      ],
      "stateMutability": "view",
      "type": "function"
    },
    {
      "inputs": [],
      "name": "vestingIsStarted",
      "outputs": [
        {
          "internalType": "bool",
          "name": "",
          "type": "bool"
        }
      ],
      "stateMutability": "view",
      "type": "function"
    }
  ],
  "transactionHash": "0xe3c4a9773cfb6ed7e9f6c3270f5229cee6e0dce38c7a1811696dfb0c06c6f88f",
  "args": [
    "0xC9FEed17195f6758bb91F0D5201D7491A8564d86",
    "0xCBB82Ad9C73D063F39d2da71ce1CA808C91E30D8",
    "0x3BF90AA7095d9ebF9D0Ff40cC05c3dCc25FD3557"
  ],
  "numDeployments": 1,
  "solcInputHash": "75f8daed46b9aa230bdee5a96632cd7e",
  "bytecode": "0x608060405234801561001057600080fd5b50604051610b4d380380610b4d83398101604081905261002f91610117565b826001600160a01b03811661005e57604051631e4fbdf760e01b81526000600482015260240160405180910390fd5b610067816100ab565b506001805560078054610100600160a81b0319166101006001600160a01b0393841602179055600880546001600160a01b031916929091169190911790555061015a565b600080546001600160a01b038381166001600160a01b0319831681178455604051919092169283917f8be0079c531659141344cd1fd0a4f28419497f9722a3daafe3b4186f6b6457e09190a35050565b80516001600160a01b038116811461011257600080fd5b919050565b60008060006060848603121561012c57600080fd5b610135846100fb565b9250610143602085016100fb565b9150610151604085016100fb565b90509250925092565b6109e4806101696000396000f3fe608060405234801561001057600080fd5b50600436106101365760003560e01c80637baf5b84116100b2578063deb36e3211610081578063e834a83411610066578063e834a83414610220578063f2fde38b14610229578063fd1813d61461023c57600080fd5b8063deb36e3214610210578063e2f0f42d1461021857600080fd5b80637baf5b84146101d05780638da5cb5b146101d9578063a114f2d9146101ea578063b0e0c6811461020757600080fd5b80634bf9407f116101095780635aff5999116100ee5780635aff59991461018f578063715018a6146101bf578063756688c0146101c757600080fd5b80634bf9407f146101725780634e71d92d1461018757600080fd5b806302cb12441461013b57806313d033c01461015757806320d3a0b41461015f57806321a418ac14610169575b600080fd5b61014460055481565b6040519081526020015b60405180910390f35b610144600081565b61014462278d0081565b61014461271081565b610185610180366004610874565b610245565b005b61018561028c565b6007546101a79061010090046001600160a01b031681565b6040516001600160a01b03909116815260200161014e565b61018561039a565b61014461019981565b61014460065481565b6000546001600160a01b03166101a7565b6007546101f79060ff1681565b604051901515815260200161014e565b61014460045481565b6101856103ac565b61014460c881565b61014460035481565b610185610237366004610874565b6104a0565b61014460025481565b61024d6104fc565b600780546001600160a01b03909216610100027fffffffffffffffffffffff0000000000000000000000000000000000000000ff909216919091179055565b610294610542565b60075460ff166102a357600080fd5b60055442111561031257610199600260008282546102c191906108cc565b90915550506002546127101015610301577fffffffffffffffffffffffffffffffffffffffffffffffffffffffffffffffff600555612710600255610312565b61030e62278d00426108cc565b6005555b600061271060025460045461032791906108df565b61033191906108f6565b9050600354811161034157600080fd5b6000600354826103519190610931565b9050806003600082825461036591906108cc565b909155505060075460085461038d916001600160a01b03918216916101009091041683610585565b505061039860018055565b565b6103a26104fc565b610398600061060a565b6103b46104fc565b60075460ff16156103c457600080fd5b600780547fffffffffffffffffffffffffffffffffffffffffffffffffffffffffffffff0016600117905542600655610401600062278d006108df565b60065461040e91906108cc565b60055560c86002556008546040517f70a082310000000000000000000000000000000000000000000000000000000081523060048201526001600160a01b03909116906370a0823190602401602060405180830381865afa158015610477573d6000803e3d6000fd5b505050506040513d601f19601f8201168201806040525081019061049b9190610944565b600455565b6104a86104fc565b6001600160a01b0381166104f0576040517f1e4fbdf7000000000000000000000000000000000000000000000000000000008152600060048201526024015b60405180910390fd5b6104f98161060a565b50565b6000546001600160a01b03163314610398576040517f118cdaa70000000000000000000000000000000000000000000000000000000081523360048201526024016104e7565b60026001540361057e576040517f3ee5aeb500000000000000000000000000000000000000000000000000000000815260040160405180910390fd5b6002600155565b604080516001600160a01b038416602482015260448082018490528251808303909101815260649091019091526020810180517bffffffffffffffffffffffffffffffffffffffffffffffffffffffff167fa9059cbb00000000000000000000000000000000000000000000000000000000179052610605908490610672565b505050565b600080546001600160a01b038381167fffffffffffffffffffffffff0000000000000000000000000000000000000000831681178455604051919092169283917f8be0079c531659141344cd1fd0a4f28419497f9722a3daafe3b4186f6b6457e09190a35050565b60006106876001600160a01b038416836106ee565b905080516000141580156106ac5750808060200190518101906106aa919061095d565b155b15610605576040517f5274afe70000000000000000000000000000000000000000000000000000000081526001600160a01b03841660048201526024016104e7565b60606106fc83836000610705565b90505b92915050565b606081471015610743576040517fcd7860590000000000000000000000000000000000000000000000000000000081523060048201526024016104e7565b600080856001600160a01b0316848660405161075f919061097f565b60006040518083038185875af1925050503d806000811461079c576040519150601f19603f3d011682016040523d82523d6000602084013e6107a1565b606091505b50915091506107b18683836107bd565b925050505b9392505050565b6060826107d2576107cd82610832565b6107b6565b81511580156107e957506001600160a01b0384163b155b1561082b576040517f9996b3150000000000000000000000000000000000000000000000000000000081526001600160a01b03851660048201526024016104e7565b50806107b6565b8051156108425780518082602001fd5b6040517f1425ea4200000000000000000000000000000000000000000000000000000000815260040160405180910390fd5b60006020828403121561088657600080fd5b81356001600160a01b03811681146107b657600080fd5b7f4e487b7100000000000000000000000000000000000000000000000000000000600052601160045260246000fd5b808201808211156106ff576106ff61089d565b80820281158282048414176106ff576106ff61089d565b60008261092c577f4e487b7100000000000000000000000000000000000000000000000000000000600052601260045260246000fd5b500490565b818103818111156106ff576106ff61089d565b60006020828403121561095657600080fd5b5051919050565b60006020828403121561096f57600080fd5b815180151581146107b657600080fd5b6000825160005b818110156109a05760208186018101518583015201610986565b50600092019182525091905056fea2646970667358221220cab889205ae09d24220d4818cb1b91abf8df33f39e029ade0c5d75f5c5f48e8664736f6c63430008180033",
  "devdoc": {
    "errors": {
      "AddressEmptyCode(address)": [
        {
          "details": "There's no code at `target` (it is not a contract)."
        }
      ],
      "AddressInsufficientBalance(address)": [
        {
          "details": "The ETH balance of the account is not enough to perform the operation."
        }
      ],
      "FailedInnerCall()": [
        {
          "details": "A call to an address target failed. The target may have reverted."
        }
      ],
      "OwnableInvalidOwner(address)": [
        {
          "details": "The owner is not a valid owner account. (eg. `address(0)`)"
        }
      ],
      "OwnableUnauthorizedAccount(address)": [
        {
          "details": "The caller account is not authorized to perform an operation."
        }
      ],
      "ReentrancyGuardReentrantCall()": [
        {
          "details": "Unauthorized reentrant call."
        }
      ],
      "SafeERC20FailedOperation(address)": [
        {
          "details": "An operation with an ERC20 token failed."
        }
      ]
    },
    "kind": "dev",
    "methods": {
      "owner()": {
        "details": "Returns the address of the current owner."
      },
      "renounceOwnership()": {
        "details": "Leaves the contract without owner. It will not be possible to call `onlyOwner` functions. Can only be called by the current owner. NOTE: Renouncing ownership will leave the contract without an owner, thereby disabling any functionality that is only available to the owner."
      },
      "transferOwnership(address)": {
        "details": "Transfers ownership of the contract to a new account (`newOwner`). Can only be called by the current owner."
      }
    },
    "version": 1
  },
  "userdoc": {
    "kind": "user",
    "methods": {},
    "version": 1
  },
  "storageLayout": {
    "storage": [
      {
        "astId": 8,
        "contract": "contracts/vesting/GamersRewardsLock.sol:GamersRewardsLock",
        "label": "_owner",
        "offset": 0,
        "slot": "0",
        "type": "t_address"
      },
      {
        "astId": 845,
        "contract": "contracts/vesting/GamersRewardsLock.sol:GamersRewardsLock",
        "label": "_status",
        "offset": 0,
        "slot": "1",
        "type": "t_uint256"
      },
      {
        "astId": 1537,
        "contract": "contracts/vesting/GamersRewardsLock.sol:GamersRewardsLock",
        "label": "avalableToClaimGlobal",
        "offset": 0,
        "slot": "2",
        "type": "t_uint256"
      },
      {
        "astId": 1539,
        "contract": "contracts/vesting/GamersRewardsLock.sol:GamersRewardsLock",
        "label": "claimed",
        "offset": 0,
        "slot": "3",
        "type": "t_uint256"
      },
      {
        "astId": 1541,
        "contract": "contracts/vesting/GamersRewardsLock.sol:GamersRewardsLock",
        "label": "distributionAmount",
        "offset": 0,
        "slot": "4",
        "type": "t_uint256"
      },
      {
        "astId": 1543,
        "contract": "contracts/vesting/GamersRewardsLock.sol:GamersRewardsLock",
        "label": "nextUnlock",
        "offset": 0,
        "slot": "5",
        "type": "t_uint256"
      },
      {
        "astId": 1545,
        "contract": "contracts/vesting/GamersRewardsLock.sol:GamersRewardsLock",
        "label": "startUnlock",
        "offset": 0,
        "slot": "6",
        "type": "t_uint256"
      },
      {
        "astId": 1547,
        "contract": "contracts/vesting/GamersRewardsLock.sol:GamersRewardsLock",
        "label": "vestingIsStarted",
        "offset": 0,
        "slot": "7",
        "type": "t_bool"
      },
      {
        "astId": 1549,
        "contract": "contracts/vesting/GamersRewardsLock.sol:GamersRewardsLock",
        "label": "recipientAddress",
        "offset": 1,
        "slot": "7",
        "type": "t_address"
      },
      {
        "astId": 1552,
        "contract": "contracts/vesting/GamersRewardsLock.sol:GamersRewardsLock",
        "label": "_token",
        "offset": 0,
        "slot": "8",
        "type": "t_contract(IERC20)225"
      }
    ],
    "types": {
      "t_address": {
        "encoding": "inplace",
        "label": "address",
        "numberOfBytes": "20"
      },
      "t_bool": {
        "encoding": "inplace",
        "label": "bool",
        "numberOfBytes": "1"
      },
      "t_contract(IERC20)225": {
        "encoding": "inplace",
        "label": "contract IERC20",
        "numberOfBytes": "20"
      },
      "t_uint256": {
        "encoding": "inplace",
        "label": "uint256",
        "numberOfBytes": "32"
      }
    }
  }
}