{
  "address": "0xCBB82Ad9C73D063F39d2da71ce1CA808C91E30D8",
  "abi": [
    {
      "inputs": [
        {
          "internalType": "address",
          "name": "initialOwner_",
          "type": "address"
        }
      ],
      "stateMutability": "nonpayable",
      "type": "constructor"
    },
    {
      "inputs": [],
      "name": "AccessControlBadConfirmation",
      "type": "error"
    },
    {
      "inputs": [
        {
          "internalType": "address",
          "name": "account",
          "type": "address"
        },
        {
          "internalType": "bytes32",
          "name": "neededRole",
          "type": "bytes32"
        }
      ],
      "name": "AccessControlUnauthorizedAccount",
      "type": "error"
    },
    {
      "inputs": [
        {
          "internalType": "address",
          "name": "spender",
          "type": "address"
        },
        {
          "internalType": "uint256",
          "name": "allowance",
          "type": "uint256"
        },
        {
          "internalType": "uint256",
          "name": "needed",
          "type": "uint256"
        }
      ],
      "name": "ERC20InsufficientAllowance",
      "type": "error"
    },
    {
      "inputs": [
        {
          "internalType": "address",
          "name": "sender",
          "type": "address"
        },
        {
          "internalType": "uint256",
          "name": "balance",
          "type": "uint256"
        },
        {
          "internalType": "uint256",
          "name": "needed",
          "type": "uint256"
        }
      ],
      "name": "ERC20InsufficientBalance",
      "type": "error"
    },
    {
      "inputs": [
        {
          "internalType": "address",
          "name": "approver",
          "type": "address"
        }
      ],
      "name": "ERC20InvalidApprover",
      "type": "error"
    },
    {
      "inputs": [
        {
          "internalType": "address",
          "name": "receiver",
          "type": "address"
        }
      ],
      "name": "ERC20InvalidReceiver",
      "type": "error"
    },
    {
      "inputs": [
        {
          "internalType": "address",
          "name": "sender",
          "type": "address"
        }
      ],
      "name": "ERC20InvalidSender",
      "type": "error"
    },
    {
      "inputs": [
        {
          "internalType": "address",
          "name": "spender",
          "type": "address"
        }
      ],
      "name": "ERC20InvalidSpender",
      "type": "error"
    },
    {
      "anonymous": false,
      "inputs": [
        {
          "indexed": true,
          "internalType": "address",
          "name": "owner",
          "type": "address"
        },
        {
          "indexed": true,
          "internalType": "address",
          "name": "spender",
          "type": "address"
        },
        {
          "indexed": false,
          "internalType": "uint256",
          "name": "value",
          "type": "uint256"
        }
      ],
      "name": "Approval",
      "type": "event"
    },
    {
      "anonymous": false,
      "inputs": [
        {
          "indexed": false,
          "internalType": "uint256",
          "name": "startBlock",
          "type": "uint256"
        }
      ],
      "name": "OpenTrade",
      "type": "event"
    },
    {
      "anonymous": false,
      "inputs": [
        {
          "indexed": true,
          "internalType": "bytes32",
          "name": "role",
          "type": "bytes32"
        },
        {
          "indexed": true,
          "internalType": "bytes32",
          "name": "previousAdminRole",
          "type": "bytes32"
        },
        {
          "indexed": true,
          "internalType": "bytes32",
          "name": "newAdminRole",
          "type": "bytes32"
        }
      ],
      "name": "RoleAdminChanged",
      "type": "event"
    },
    {
      "anonymous": false,
      "inputs": [
        {
          "indexed": true,
          "internalType": "bytes32",
          "name": "role",
          "type": "bytes32"
        },
        {
          "indexed": true,
          "internalType": "address",
          "name": "account",
          "type": "address"
        },
        {
          "indexed": true,
          "internalType": "address",
          "name": "sender",
          "type": "address"
        }
      ],
      "name": "RoleGranted",
      "type": "event"
    },
    {
      "anonymous": false,
      "inputs": [
        {
          "indexed": true,
          "internalType": "bytes32",
          "name": "role",
          "type": "bytes32"
        },
        {
          "indexed": true,
          "internalType": "address",
          "name": "account",
          "type": "address"
        },
        {
          "indexed": true,
          "internalType": "address",
          "name": "sender",
          "type": "address"
        }
      ],
      "name": "RoleRevoked",
      "type": "event"
    },
    {
      "anonymous": false,
      "inputs": [
        {
          "indexed": false,
          "internalType": "bool",
          "name": "value",
          "type": "bool"
        }
      ],
      "name": "SetAntibot",
      "type": "event"
    },
    {
      "anonymous": false,
      "inputs": [
        {
          "indexed": false,
          "internalType": "uint256",
          "name": "blockTimeout",
          "type": "uint256"
        }
      ],
      "name": "SetBlockTimeout",
      "type": "event"
    },
    {
      "anonymous": false,
      "inputs": [
        {
          "indexed": false,
          "internalType": "uint256",
          "name": "deadBlocks",
          "type": "uint256"
        }
      ],
      "name": "SetDeadBlocks",
      "type": "event"
    },
    {
      "anonymous": false,
      "inputs": [
        {
          "indexed": false,
          "internalType": "uint256",
          "name": "fee",
          "type": "uint256"
        }
      ],
      "name": "SetFee",
      "type": "event"
    },
    {
      "anonymous": false,
      "inputs": [
        {
          "indexed": false,
          "internalType": "address",
          "name": "account",
          "type": "address"
        },
        {
          "indexed": false,
          "internalType": "bool",
          "name": "value",
          "type": "bool"
        }
      ],
      "name": "SetIsBlacklisted",
      "type": "event"
    },
    {
      "anonymous": false,
      "inputs": [
        {
          "indexed": false,
          "internalType": "address",
          "name": "account",
          "type": "address"
        },
        {
          "indexed": false,
          "internalType": "bool",
          "name": "value",
          "type": "bool"
        }
      ],
      "name": "SetIsDisabledFee",
      "type": "event"
    },
    {
      "anonymous": false,
      "inputs": [
        {
          "indexed": false,
          "internalType": "address",
          "name": "account",
          "type": "address"
        },
        {
          "indexed": false,
          "internalType": "bool",
          "name": "value",
          "type": "bool"
        }
      ],
      "name": "SetIsWhitelisted",
      "type": "event"
    },
    {
      "anonymous": false,
      "inputs": [
        {
          "indexed": false,
          "internalType": "uint256",
          "name": "amount",
          "type": "uint256"
        }
      ],
      "name": "SetMaxTxAmount",
      "type": "event"
    },
    {
      "anonymous": false,
      "inputs": [
        {
          "indexed": false,
          "internalType": "address",
          "name": "pair",
          "type": "address"
        }
      ],
      "name": "SetPair",
      "type": "event"
    },
    {
      "anonymous": false,
      "inputs": [
        {
          "indexed": true,
          "internalType": "address",
          "name": "from",
          "type": "address"
        },
        {
          "indexed": true,
          "internalType": "address",
          "name": "to",
          "type": "address"
        },
        {
          "indexed": false,
          "internalType": "uint256",
          "name": "value",
          "type": "uint256"
        }
      ],
      "name": "Transfer",
      "type": "event"
    },
    {
      "inputs": [],
      "name": "DEFAULT_ADMIN_ROLE",
      "outputs": [
        {
          "internalType": "bytes32",
          "name": "",
          "type": "bytes32"
        }
      ],
      "stateMutability": "view",
      "type": "function"
    },
    {
      "inputs": [],
      "name": "MAX_BLOCK_TIMEOUT",
      "outputs": [
        {
          "internalType": "uint256",
          "name": "",
          "type": "uint256"
        }
      ],
      "stateMutability": "view",
      "type": "function"
    },
    {
      "inputs": [],
      "name": "MAX_FEE_AMOUNT",
      "outputs": [
        {
          "internalType": "uint256",
          "name": "",
          "type": "uint256"
        }
      ],
      "stateMutability": "view",
      "type": "function"
    },
    {
      "inputs": [],
      "name": "RMC_PAIR_ROLE",
      "outputs": [
        {
          "internalType": "bytes32",
          "name": "",
          "type": "bytes32"
        }
      ],
      "stateMutability": "view",
      "type": "function"
    },
    {
      "inputs": [
        {
          "internalType": "address",
          "name": "owner",
          "type": "address"
        },
        {
          "internalType": "address",
          "name": "spender",
          "type": "address"
        }
      ],
      "name": "allowance",
      "outputs": [
        {
          "internalType": "uint256",
          "name": "",
          "type": "uint256"
        }
      ],
      "stateMutability": "view",
      "type": "function"
    },
    {
      "inputs": [],
      "name": "antibot",
      "outputs": [
        {
          "internalType": "bool",
          "name": "",
          "type": "bool"
        }
      ],
      "stateMutability": "view",
      "type": "function"
    },
    {
      "inputs": [
        {
          "internalType": "address",
          "name": "spender",
          "type": "address"
        },
        {
          "internalType": "uint256",
          "name": "value",
          "type": "uint256"
        }
      ],
      "name": "approve",
      "outputs": [
        {
          "internalType": "bool",
          "name": "",
          "type": "bool"
        }
      ],
      "stateMutability": "nonpayable",
      "type": "function"
    },
    {
      "inputs": [
        {
          "internalType": "address",
          "name": "account",
          "type": "address"
        }
      ],
      "name": "balanceOf",
      "outputs": [
        {
          "internalType": "uint256",
          "name": "",
          "type": "uint256"
        }
      ],
      "stateMutability": "view",
      "type": "function"
    },
    {
      "inputs": [],
      "name": "blockTimeout",
      "outputs": [
        {
          "internalType": "uint256",
          "name": "",
          "type": "uint256"
        }
      ],
      "stateMutability": "view",
      "type": "function"
    },
    {
      "inputs": [
        {
          "internalType": "uint256",
          "name": "amount_",
          "type": "uint256"
        }
      ],
      "name": "burn",
      "outputs": [
        {
          "internalType": "bool",
          "name": "",
          "type": "bool"
        }
      ],
      "stateMutability": "nonpayable",
      "type": "function"
    },
    {
      "inputs": [],
      "name": "deadBlocks",
      "outputs": [
        {
          "internalType": "uint256",
          "name": "",
          "type": "uint256"
        }
      ],
      "stateMutability": "view",
      "type": "function"
    },
    {
      "inputs": [],
      "name": "decimals",
      "outputs": [
        {
          "internalType": "uint8",
          "name": "",
          "type": "uint8"
        }
      ],
      "stateMutability": "view",
      "type": "function"
    },
    {
      "inputs": [],
      "name": "fee",
      "outputs": [
        {
          "internalType": "uint256",
          "name": "",
          "type": "uint256"
        }
      ],
      "stateMutability": "view",
      "type": "function"
    },
    {
      "inputs": [
        {
          "internalType": "bytes32",
          "name": "role",
          "type": "bytes32"
        }
      ],
      "name": "getRoleAdmin",
      "outputs": [
        {
          "internalType": "bytes32",
          "name": "",
          "type": "bytes32"
        }
      ],
      "stateMutability": "view",
      "type": "function"
    },
    {
      "inputs": [
        {
          "internalType": "bytes32",
          "name": "role",
          "type": "bytes32"
        },
        {
          "internalType": "uint256",
          "name": "index",
          "type": "uint256"
        }
      ],
      "name": "getRoleMember",
      "outputs": [
        {
          "internalType": "address",
          "name": "",
          "type": "address"
        }
      ],
      "stateMutability": "view",
      "type": "function"
    },
    {
      "inputs": [
        {
          "internalType": "bytes32",
          "name": "role",
          "type": "bytes32"
        }
      ],
      "name": "getRoleMemberCount",
      "outputs": [
        {
          "internalType": "uint256",
          "name": "",
          "type": "uint256"
        }
      ],
      "stateMutability": "view",
      "type": "function"
    },
    {
      "inputs": [
        {
          "internalType": "bytes32",
          "name": "role",
          "type": "bytes32"
        },
        {
          "internalType": "address",
          "name": "account",
          "type": "address"
        }
      ],
      "name": "grantRole",
      "outputs": [],
      "stateMutability": "nonpayable",
      "type": "function"
    },
    {
      "inputs": [
        {
          "internalType": "bytes32",
          "name": "role",
          "type": "bytes32"
        },
        {
          "internalType": "address",
          "name": "account",
          "type": "address"
        }
      ],
      "name": "hasRole",
      "outputs": [
        {
          "internalType": "bool",
          "name": "",
          "type": "bool"
        }
      ],
      "stateMutability": "view",
      "type": "function"
    },
    {
      "inputs": [
        {
          "internalType": "address",
          "name": "",
          "type": "address"
        }
      ],
      "name": "isBlacklisted",
      "outputs": [
        {
          "internalType": "bool",
          "name": "",
          "type": "bool"
        }
      ],
      "stateMutability": "view",
      "type": "function"
    },
    {
      "inputs": [
        {
          "internalType": "address",
          "name": "",
          "type": "address"
        }
      ],
      "name": "isDisabledFee",
      "outputs": [
        {
          "internalType": "bool",
          "name": "",
          "type": "bool"
        }
      ],
      "stateMutability": "view",
      "type": "function"
    },
    {
      "inputs": [],
      "name": "isTradingEnabled",
      "outputs": [
        {
          "internalType": "bool",
          "name": "",
          "type": "bool"
        }
      ],
      "stateMutability": "view",
      "type": "function"
    },
    {
      "inputs": [
        {
          "internalType": "address",
          "name": "",
          "type": "address"
        }
      ],
      "name": "isWhitelisted",
      "outputs": [
        {
          "internalType": "bool",
          "name": "",
          "type": "bool"
        }
      ],
      "stateMutability": "view",
      "type": "function"
    },
    {
      "inputs": [
        {
          "internalType": "address",
          "name": "",
          "type": "address"
        }
      ],
      "name": "lastTransfer",
      "outputs": [
        {
          "internalType": "uint256",
          "name": "",
          "type": "uint256"
        }
      ],
      "stateMutability": "view",
      "type": "function"
    },
    {
      "inputs": [],
      "name": "maxTxAmount",
      "outputs": [
        {
          "internalType": "uint256",
          "name": "",
          "type": "uint256"
        }
      ],
      "stateMutability": "view",
      "type": "function"
    },
    {
      "inputs": [],
      "name": "name",
      "outputs": [
        {
          "internalType": "string",
          "name": "",
          "type": "string"
        }
      ],
      "stateMutability": "view",
      "type": "function"
    },
    {
      "inputs": [],
      "name": "openTrade",
      "outputs": [],
      "stateMutability": "nonpayable",
      "type": "function"
    },
    {
      "inputs": [
        {
          "internalType": "bytes32",
          "name": "role",
          "type": "bytes32"
        },
        {
          "internalType": "address",
          "name": "callerConfirmation",
          "type": "address"
        }
      ],
      "name": "renounceRole",
      "outputs": [],
      "stateMutability": "nonpayable",
      "type": "function"
    },
    {
      "inputs": [
        {
          "internalType": "bytes32",
          "name": "role",
          "type": "bytes32"
        },
        {
          "internalType": "address",
          "name": "account",
          "type": "address"
        }
      ],
      "name": "revokeRole",
      "outputs": [],
      "stateMutability": "nonpayable",
      "type": "function"
    },
    {
      "inputs": [
        {
          "internalType": "bool",
          "name": "value_",
          "type": "bool"
        }
      ],
      "name": "setAntibot",
      "outputs": [],
      "stateMutability": "nonpayable",
      "type": "function"
    },
    {
      "inputs": [
        {
          "internalType": "address[]",
          "name": "accounts_",
          "type": "address[]"
        },
        {
          "internalType": "bool",
          "name": "value_",
          "type": "bool"
        }
      ],
      "name": "setBanchIsBlacklisted",
      "outputs": [],
      "stateMutability": "nonpayable",
      "type": "function"
    },
    {
      "inputs": [
        {
          "internalType": "address[]",
          "name": "accounts_",
          "type": "address[]"
        },
        {
          "internalType": "bool",
          "name": "value_",
          "type": "bool"
        }
      ],
      "name": "setBanchIsWhitelisted",
      "outputs": [],
      "stateMutability": "nonpayable",
      "type": "function"
    },
    {
      "inputs": [
        {
          "internalType": "uint256",
          "name": "blockTimeout_",
          "type": "uint256"
        }
      ],
      "name": "setBlockTimeout",
      "outputs": [],
      "stateMutability": "nonpayable",
      "type": "function"
    },
    {
      "inputs": [
        {
          "internalType": "uint256",
          "name": "deadBlocks_",
          "type": "uint256"
        }
      ],
      "name": "setDeadBlocks",
      "outputs": [],
      "stateMutability": "nonpayable",
      "type": "function"
    },
    {
      "inputs": [
        {
          "internalType": "uint256",
          "name": "fee_",
          "type": "uint256"
        }
      ],
      "name": "setFee",
      "outputs": [],
      "stateMutability": "nonpayable",
      "type": "function"
    },
    {
      "inputs": [
        {
          "internalType": "address",
          "name": "account_",
          "type": "address"
        },
        {
          "internalType": "bool",
          "name": "value_",
          "type": "bool"
        }
      ],
      "name": "setIsBlacklisted",
      "outputs": [],
      "stateMutability": "nonpayable",
      "type": "function"
    },
    {
      "inputs": [
        {
          "internalType": "address",
          "name": "account_",
          "type": "address"
        },
        {
          "internalType": "bool",
          "name": "value_",
          "type": "bool"
        }
      ],
      "name": "setIsDisabledFee",
      "outputs": [],
      "stateMutability": "nonpayable",
      "type": "function"
    },
    {
      "inputs": [
        {
          "internalType": "address",
          "name": "account_",
          "type": "address"
        },
        {
          "internalType": "bool",
          "name": "value_",
          "type": "bool"
        }
      ],
      "name": "setIsWhitelisted",
      "outputs": [],
      "stateMutability": "nonpayable",
      "type": "function"
    },
    {
      "inputs": [
        {
          "internalType": "uint256",
          "name": "amount_",
          "type": "uint256"
        }
      ],
      "name": "setMaxTxAmount",
      "outputs": [],
      "stateMutability": "nonpayable",
      "type": "function"
    },
    {
      "inputs": [],
      "name": "startBlock",
      "outputs": [
        {
          "internalType": "uint256",
          "name": "",
          "type": "uint256"
        }
      ],
      "stateMutability": "view",
      "type": "function"
    },
    {
      "inputs": [
        {
          "internalType": "bytes4",
          "name": "interfaceId",
          "type": "bytes4"
        }
      ],
      "name": "supportsInterface",
      "outputs": [
        {
          "internalType": "bool",
          "name": "",
          "type": "bool"
        }
      ],
      "stateMutability": "view",
      "type": "function"
    },
    {
      "inputs": [],
      "name": "symbol",
      "outputs": [
        {
          "internalType": "string",
          "name": "",
          "type": "string"
        }
      ],
      "stateMutability": "view",
      "type": "function"
    },
    {
      "inputs": [],
      "name": "totalSupply",
      "outputs": [
        {
          "internalType": "uint256",
          "name": "",
          "type": "uint256"
        }
      ],
      "stateMutability": "view",
      "type": "function"
    },
    {
      "inputs": [
        {
          "internalType": "address",
          "name": "to",
          "type": "address"
        },
        {
          "internalType": "uint256",
          "name": "value",
          "type": "uint256"
        }
      ],
      "name": "transfer",
      "outputs": [
        {
          "internalType": "bool",
          "name": "",
          "type": "bool"
        }
      ],
      "stateMutability": "nonpayable",
      "type": "function"
    },
    {
      "inputs": [
        {
          "internalType": "address",
          "name": "from",
          "type": "address"
        },
        {
          "internalType": "address",
          "name": "to",
          "type": "address"
        },
        {
          "internalType": "uint256",
          "name": "value",
          "type": "uint256"
        }
      ],
      "name": "transferFrom",
      "outputs": [
        {
          "internalType": "bool",
          "name": "",
          "type": "bool"
        }
      ],
      "stateMutability": "nonpayable",
      "type": "function"
    }
  ],
  "transactionHash": "0x5c085261d5c2e273b17e386d5144c83bc395a850065009ca396099a11de584b2",
  "args": [
    "0xC9FEed17195f6758bb91F0D5201D7491A8564d86"
  ],
  "numDeployments": 1,
  "solcInputHash": "4991cb80bf213686b94f78c26d244b09",
  "bytecode": "0x60806040523480156200001157600080fd5b506040516200257138038062002571833981016040819052620000349162000479565b604051806040016040528060098152602001682937b7b69021b7b4b760b91b81525060405180604001604052806003815260200162524d4360e81b81525081600590816200008391906200054b565b5060066200009282826200054b565b50620000a4915060009050826200013d565b50620000cf600082620000ba6012600a6200072a565b620000c990629896806200073b565b6200017a565b620000dc816001620002b0565b620000e981600162000314565b620000f6306001620002b0565b6002600855600a60098190556005905560126200011590600a6200072a565b6200012490620f42406200073b565b600b5550600c805461ff0019166101001790556200076b565b6000806200014c848462000371565b90508015620001715760008481526001602052604090206200016f90846200041f565b505b90505b92915050565b6001600160a01b038316620001a95780600460008282546200019d919062000755565b90915550620002209050565b6001600160a01b03831660009081526002602052604090205481811015620002015760405163391434e360e21b81526001600160a01b0385166004820152602481018290526044810183905260640160405180910390fd5b6001600160a01b03841660009081526002602052604090209082900390555b6001600160a01b0382166200023e576004805482900390556200025d565b6001600160a01b03821660009081526002602052604090208054820190555b816001600160a01b0316836001600160a01b03167fddf252ad1be2c89b69c2b068fc378daa952ba7f163c4a11628f55a4df523b3ef83604051620002a391815260200190565b60405180910390a3505050565b6001600160a01b0382166000818152600e6020908152604091829020805460ff19168515159081179091558251938452908301527f6c2c1966a276b3dc858097a7ea49424990d1fe95a57b7d865a85e016c3b94e7591015b60405180910390a15050565b6001600160a01b0382166000818152600f6020908152604091829020805460ff19168515159081179091558251938452908301527fcc80eb18b011de1bbfb01f6a602ea9446676b76dae428175be2b3e4980744143910162000308565b6000828152602081815260408083206001600160a01b038516845290915281205460ff1662000416576000838152602081815260408083206001600160a01b03861684529091529020805460ff19166001179055620003cd3390565b6001600160a01b0316826001600160a01b0316847f2f8788117e7eff1d82e926ec794901d17c78024a50270940304540a733656f0d60405160405180910390a450600162000174565b50600062000174565b600062000171836001600160a01b0384166000818152600183016020526040812054620004165750815460018181018455600084815260208082209093018490558454848252828601909352604090209190915562000174565b6000602082840312156200048c57600080fd5b81516001600160a01b03811681146200017157600080fd5b634e487b7160e01b600052604160045260246000fd5b600181811c90821680620004cf57607f821691505b602082108103620004f057634e487b7160e01b600052602260045260246000fd5b50919050565b601f82111562000546576000816000526020600020601f850160051c81016020861015620005215750805b601f850160051c820191505b8181101562000542578281556001016200052d565b5050505b505050565b81516001600160401b03811115620005675762000567620004a4565b6200057f81620005788454620004ba565b84620004f6565b602080601f831160018114620005b757600084156200059e5750858301515b600019600386901b1c1916600185901b17855562000542565b600085815260208120601f198616915b82811015620005e857888601518255948401946001909101908401620005c7565b5085821015620006075787850151600019600388901b60f8161c191681555b5050505050600190811b01905550565b634e487b7160e01b600052601160045260246000fd5b600181815b808511156200066e57816000190482111562000652576200065262000617565b808516156200066057918102915b93841c939080029062000632565b509250929050565b600082620006875750600162000174565b81620006965750600062000174565b8160018114620006af5760028114620006ba57620006da565b600191505062000174565b60ff841115620006ce57620006ce62000617565b50506001821b62000174565b5060208310610133831016604e8410600b8410161715620006ff575081810a62000174565b6200070b83836200062d565b806000190482111562000722576200072262000617565b029392505050565b60006200017160ff84168362000676565b808202811582820484141762000174576200017462000617565b8082018082111562000174576200017462000617565b611df6806200077b6000396000f3fe608060405234801561001057600080fd5b50600436106102f45760003560e01c806370a0823111610191578063a9059cbb116100e3578063ddca3f4311610097578063fabb0b4f11610071578063fabb0b4f14610687578063fb201b1d14610690578063fe575a871461069857600080fd5b8063ddca3f4314610658578063e71804cd14610661578063ec28438a1461067457600080fd5b8063ca15c873116100c8578063ca15c873146105f9578063d547741f1461060c578063dd62ed3e1461061f57600080fd5b8063a9059cbb146105d3578063bdf0e1f2146105e657600080fd5b80639010d07c1161014557806395d89b411161011f57806395d89b41146105b0578063a0e38492146105b8578063a217fddf146105cb57600080fd5b80639010d07c1461054557806391d148541461057057806394946e17146105a757600080fd5b806380e716551161017657806380e71655146105205780638c0b5e22146105295780638cbfb3501461053257600080fd5b806370a08231146104d4578063781f5ed2146104fd57600080fd5b80632a54caba1161024a5780633a13e632116101fe57806348cd4cb1116101d857806348cd4cb1146104985780635b6612ad146104a157806369fe0e2d146104c157600080fd5b80633a13e6321461043b5780633af32abf1461046257806342966c681461048557600080fd5b8063305c4c801161022f578063305c4c8014610407578063313ce5671461041957806336568abe1461042857600080fd5b80632a54caba146103ec5780632f2ff15d146103f457600080fd5b806309ec923a116102ac5780631e646cd1116102865780631e646cd1146103a357806323b872dd146103b6578063248a9ca3146103c957600080fd5b806309ec923a1461036b5780630a37a3f31461037e57806318160ddd1461039157600080fd5b806306fdde03116102dd57806306fdde031461032e578063086d3c7a14610343578063095ea7b31461035857600080fd5b806301ffc9a7146102f9578063064a59d014610321575b600080fd5b61030c610307366004611a2f565b6106bb565b60405190151581526020015b60405180910390f35b600c5461030c9060ff1681565b610336610717565b6040516103189190611a71565b610356610351366004611ade565b6107a9565b005b61030c610366366004611b13565b61086e565b610356610379366004611b4d565b610886565b61035661038c366004611ade565b6108a0565b6004545b604051908152602001610318565b6103566103b1366004611b4d565b6108e0565b61030c6103c4366004611b80565b6108f5565b6103956103d7366004611ade565b60009081526020819052604090206001015490565b610395600581565b610356610402366004611bbc565b610919565b600c5461030c90610100900460ff1681565b60405160128152602001610318565b610356610436366004611bbc565b610944565b6103957fef56b86e5f97b622a9c558148a7404b20b396f567a9a8bcbf128d2b7ec33c72881565b61030c610470366004611bdf565b600e6020526000908152604090205460ff1681565b61030c610493366004611ade565b610990565b61039560075481565b6103956104af366004611bdf565b60106020526000908152604090205481565b6103566104cf366004611ade565b6109a6565b6103956104e2366004611bdf565b6001600160a01b031660009081526002602052604090205490565b61030c61050b366004611bdf565b600f6020526000908152604090205460ff1681565b61039560095481565b610395600b5481565b610356610540366004611bfa565b610a36565b610558610553366004611c7e565b610a8b565b6040516001600160a01b039091168152602001610318565b61030c61057e366004611bbc565b6000918252602082815260408084206001600160a01b0393909316845291905290205460ff1690565b61039561708081565b610336610aaa565b6103566105c6366004611b4d565b610ab9565b610395600081565b61030c6105e1366004611b13565b610ace565b6103566105f4366004611bfa565b610adc565b610395610607366004611ade565b610b2a565b61035661061a366004611bbc565b610b41565b61039561062d366004611ca0565b6001600160a01b03918216600090815260036020908152604080832093909416825291909152205490565b61039560085481565b61035661066f366004611cca565b610b66565b610356610682366004611ade565b610bba565b610395600a5481565b610356610ce8565b61030c6106a6366004611bdf565b600d6020526000908152604090205460ff1681565b60007fffffffff0000000000000000000000000000000000000000000000000000000082167f5a05180f000000000000000000000000000000000000000000000000000000001480610711575061071182610dbb565b92915050565b60606005805461072690611ce5565b80601f016020809104026020016040519081016040528092919081815260200182805461075290611ce5565b801561079f5780601f106107745761010080835404028352916020019161079f565b820191906000526020600020905b81548152906001019060200180831161078257829003601f168201915b5050505050905090565b60006107b481610e52565b6170808211156108315760405162461bcd60e51b815260206004820152603060248201527f526f6f6d436f696e3a20426c6f636b2074696d656f75742063616e277420626560448201527f206d6f7265207768656e2031206461790000000000000000000000000000000060648201526084015b60405180910390fd5b60098290556040518281527f27e19274ee0c52044641d9931e80696206d5bc3ca679a754bf7eb1cf89e2463c906020015b60405180910390a15050565b60003361087c818585610e5f565b5060019392505050565b600061089181610e52565b61089b8383610e6c565b505050565b60006108ab81610e52565b600a8290556040518281527ff1862d87887cbd72580f804b5b695666a441302586206f0836f515eb0d9f258f90602001610862565b60006108eb81610e52565b61089b8383610ec8565b600033610903858285610f24565b61090e858585610fd3565b506001949350505050565b60008281526020819052604090206001015461093481610e52565b61093e8383611064565b50505050565b6001600160a01b0381163314610986576040517f6697b23200000000000000000000000000000000000000000000000000000000815260040160405180910390fd5b61089b8282611099565b600061099e336000846110c6565b506001919050565b60006109b181610e52565b6005821115610a025760405162461bcd60e51b815260206004820152601a60248201527f526f6f6d436f696e3a2057726f6e662066656520616d6f756e740000000000006044820152606401610828565b60088290556040518281527e172ddfc5ae88d08b3de01a5a187667c37a5a53989e8c175055cb6c993792a790602001610862565b6000610a4181610e52565b60005b83811015610a8457610a7c858583818110610a6157610a61611d1f565b9050602002016020810190610a769190611bdf565b84610e6c565b600101610a44565b5050505050565b6000828152600160205260408120610aa39083611209565b9392505050565b60606006805461072690611ce5565b6000610ac481610e52565b61089b8383611215565b60003361087c818585610fd3565b6000610ae781610e52565b60005b83811015610a8457610b22858583818110610b0757610b07611d1f565b9050602002016020810190610b1c9190611bdf565b84611215565b600101610aea565b600081815260016020526040812061071190611271565b600082815260208190526040902060010154610b5c81610e52565b61093e8383611099565b6000610b7181610e52565b600c80548315156101000261ff00199091161790556040517f9b3a4340a0d526c03f8b75b299c9322cae733f5b6dc8466c2affdbb215648f3b9061086290841515815260200190565b6000610bc581610e52565b600454821115610c3d5760405162461bcd60e51b815260206004820152603760248201527f526f6f6d436f696e3a204d617820747820616d6f756e742063616e277420626560448201527f206d6f7265207468616e20746f74616c20737570706c790000000000000000006064820152608401610828565b81600003610cb35760405162461bcd60e51b815260206004820152602560248201527f526f6f6d436f696e3a204d617820747820616d6f756e742063616e277420626560448201527f207a65726f0000000000000000000000000000000000000000000000000000006064820152608401610828565b600b8290556040518281527f4a02caf9e7317d663463d3d976767ba90289279dd55c0a46f962536efc87a9a690602001610862565b6000610cf381610e52565b600c5460ff1615610d6b5760405162461bcd60e51b8152602060048201526024808201527f526f6f6d436f696e3a2054726164696e6720697320616c726561647920656e6160448201527f626c6564000000000000000000000000000000000000000000000000000000006064820152608401610828565b600c805460ff191660011790554360078190556040517f4fc604860769be20f5b28724fc4548c0761b6522497add438f0fd954f11078e391610db09190815260200190565b60405180910390a150565b60007fffffffff0000000000000000000000000000000000000000000000000000000082167f7965db0b00000000000000000000000000000000000000000000000000000000148061071157507f01ffc9a7000000000000000000000000000000000000000000000000000000007fffffffff00000000000000000000000000000000000000000000000000000000831614610711565b610e5c813361127b565b50565b61089b83838360016112eb565b6001600160a01b0382166000818152600e6020908152604091829020805460ff19168515159081179091558251938452908301527f6c2c1966a276b3dc858097a7ea49424990d1fe95a57b7d865a85e016c3b94e759101610862565b6001600160a01b0382166000818152600f6020908152604091829020805460ff19168515159081179091558251938452908301527fcc80eb18b011de1bbfb01f6a602ea9446676b76dae428175be2b3e49807441439101610862565b6001600160a01b038381166000908152600360209081526040808320938616835292905220547fffffffffffffffffffffffffffffffffffffffffffffffffffffffffffffffff811461093e5781811015610fc4576040517ffb8f41b20000000000000000000000000000000000000000000000000000000081526001600160a01b03841660048201526024810182905260448101839052606401610828565b61093e848484840360006112eb565b6001600160a01b038316611016576040517f96c6fd1e00000000000000000000000000000000000000000000000000000000815260006004820152602401610828565b6001600160a01b038216611059576040517fec442f0500000000000000000000000000000000000000000000000000000000815260006004820152602401610828565b61089b8383836113f2565b6000806110718484611745565b90508015610aa357600084815260016020526040902061109190846117ef565b509392505050565b6000806110a68484611804565b90508015610aa35760008481526001602052604090206110919084611887565b6001600160a01b0383166110f15780600460008282546110e69190611d4b565b9091555061117c9050565b6001600160a01b0383166000908152600260205260409020548181101561115d576040517fe450d38c0000000000000000000000000000000000000000000000000000000081526001600160a01b03851660048201526024810182905260448101839052606401610828565b6001600160a01b03841660009081526002602052604090209082900390555b6001600160a01b038216611198576004805482900390556111b7565b6001600160a01b03821660009081526002602052604090208054820190555b816001600160a01b0316836001600160a01b03167fddf252ad1be2c89b69c2b068fc378daa952ba7f163c4a11628f55a4df523b3ef836040516111fc91815260200190565b60405180910390a3505050565b6000610aa3838361189c565b6001600160a01b0382166000818152600d6020908152604091829020805460ff19168515159081179091558251938452908301527f9dbef48702adb0e5f8362df11f0f35d9e1b69b7c606e72902977010e831d35899101610862565b6000610711825490565b6000828152602081815260408083206001600160a01b038516845290915290205460ff166112e7576040517fe2517d3f0000000000000000000000000000000000000000000000000000000081526001600160a01b038216600482015260248101839052604401610828565b5050565b6001600160a01b03841661132e576040517fe602df0500000000000000000000000000000000000000000000000000000000815260006004820152602401610828565b6001600160a01b038316611371576040517f94280d6200000000000000000000000000000000000000000000000000000000815260006004820152602401610828565b6001600160a01b038085166000908152600360209081526040808320938716835292905220829055801561093e57826001600160a01b0316846001600160a01b03167f8c5be1e5ebec7d5bd14f71427d1e84f3dd0314c0f7b2291e5b200ac8c7c3b925846040516113e491815260200190565b60405180910390a350505050565b6001600160a01b0383166000908152600e6020526040902054819060ff1615801561143657506001600160a01b0383166000908152600e602052604090205460ff16155b1561173a57600c5460ff1661148d5760405162461bcd60e51b815260206004820152601d60248201527f526f6f6d436f696e3a2054726164696e672069732064697361626c65640000006044820152606401610828565b6001600160a01b0384166000908152600d602052604090205460ff16806114cc57506001600160a01b0383166000908152600d602052604090205460ff165b156115195760405162461bcd60e51b815260206004820152601d60248201527f526f6f6d436f696e3a20426c61636b6c697374656420616464726573730000006044820152606401610828565b600b548111156115915760405162461bcd60e51b815260206004820152602a60248201527f526f6f6d436f696e3a20416d6f756e74206d757374206265206c6f776572206d60448201527f61785478416d6f756e74000000000000000000000000000000000000000000006064820152608401610828565b6001600160a01b03841660009081527f25d45c40808a6d99d9b6361d3f9ef14172043b325d911f91b0d01af0aa75e80e602052604090205460ff1615611605576001600160a01b0383166000908152601060205260409020439055600c54610100900460ff161561160557611605836118c6565b6001600160a01b03831660009081527f25d45c40808a6d99d9b6361d3f9ef14172043b325d911f91b0d01af0aa75e80e602052604090205460ff16156116d3576009546001600160a01b038516600090815260106020526040902054439161166c91611d4b565b11156116ba5760405162461bcd60e51b815260206004820152601660248201527f526f6f6d436f696e3a204e6f742074696d6520796574000000000000000000006044820152606401610828565b600c54610100900460ff16156116d3576116d3846118c6565b6001600160a01b0384166000908152600f602052604090205460ff161580156116fd575060085415155b1561173a5760006064600854836117149190611d5e565b61171e9190611d75565b905061172c856000836110c6565b6117368183611d97565b9150505b61093e8484836110c6565b6000828152602081815260408083206001600160a01b038516845290915281205460ff166117e7576000838152602081815260408083206001600160a01b03861684529091529020805460ff1916600117905561179f3390565b6001600160a01b0316826001600160a01b0316847f2f8788117e7eff1d82e926ec794901d17c78024a50270940304540a733656f0d60405160405180910390a4506001610711565b506000610711565b6000610aa3836001600160a01b0384166118f5565b6000828152602081815260408083206001600160a01b038516845290915281205460ff16156117e7576000838152602081815260408083206001600160a01b0386168085529252808320805460ff1916905551339286917ff6391f5c32d9c69d2a47ea670b442974b53935d1edc7fd64eb21e047a839171b9190a4506001610711565b6000610aa3836001600160a01b03841661193c565b60008260000182815481106118b3576118b3611d1f565b9060005260206000200154905092915050565b43600a546007546118d79190611d4b565b106118e757610e5c816001611215565b600c805461ff001916905550565b60008181526001830160205260408120546117e757508154600181810184556000848152602080822090930184905584548482528286019093526040902091909155610711565b60008181526001830160205260408120548015611a25576000611960600183611d97565b855490915060009061197490600190611d97565b90508082146119d957600086600001828154811061199457611994611d1f565b90600052602060002001549050808760000184815481106119b7576119b7611d1f565b6000918252602080832090910192909255918252600188019052604090208390555b85548690806119ea576119ea611daa565b600190038181906000526020600020016000905590558560010160008681526020019081526020016000206000905560019350505050610711565b6000915050610711565b600060208284031215611a4157600080fd5b81357fffffffff0000000000000000000000000000000000000000000000000000000081168114610aa357600080fd5b60006020808352835180602085015260005b81811015611a9f57858101830151858201604001528201611a83565b5060006040828601015260407fffffffffffffffffffffffffffffffffffffffffffffffffffffffffffffffe0601f8301168501019250505092915050565b600060208284031215611af057600080fd5b5035919050565b80356001600160a01b0381168114611b0e57600080fd5b919050565b60008060408385031215611b2657600080fd5b611b2f83611af7565b946020939093013593505050565b80358015158114611b0e57600080fd5b60008060408385031215611b6057600080fd5b611b6983611af7565b9150611b7760208401611b3d565b90509250929050565b600080600060608486031215611b9557600080fd5b611b9e84611af7565b9250611bac60208501611af7565b9150604084013590509250925092565b60008060408385031215611bcf57600080fd5b82359150611b7760208401611af7565b600060208284031215611bf157600080fd5b610aa382611af7565b600080600060408486031215611c0f57600080fd5b833567ffffffffffffffff80821115611c2757600080fd5b818601915086601f830112611c3b57600080fd5b813581811115611c4a57600080fd5b8760208260051b8501011115611c5f57600080fd5b602092830195509350611c759186019050611b3d565b90509250925092565b60008060408385031215611c9157600080fd5b50508035926020909101359150565b60008060408385031215611cb357600080fd5b611cbc83611af7565b9150611b7760208401611af7565b600060208284031215611cdc57600080fd5b610aa382611b3d565b600181811c90821680611cf957607f821691505b602082108103611d1957634e487b7160e01b600052602260045260246000fd5b50919050565b634e487b7160e01b600052603260045260246000fd5b634e487b7160e01b600052601160045260246000fd5b8082018082111561071157610711611d35565b808202811582820484141761071157610711611d35565b600082611d9257634e487b7160e01b600052601260045260246000fd5b500490565b8181038181111561071157610711611d35565b634e487b7160e01b600052603160045260246000fdfea264697066735822122049c343104574a22cbee76cd8affe1495880a999475e586f8e1307ed82120f02164736f6c63430008180033",
  "devdoc": {
    "errors": {
      "AccessControlBadConfirmation()": [
        {
          "details": "The caller of a function is not the expected one. NOTE: Don't confuse with {AccessControlUnauthorizedAccount}."
        }
      ],
      "AccessControlUnauthorizedAccount(address,bytes32)": [
        {
          "details": "The `account` is missing a role."
        }
      ],
      "ERC20InsufficientAllowance(address,uint256,uint256)": [
        {
          "details": "Indicates a failure with the `spender`s `allowance`. Used in transfers.",
          "params": {
            "allowance": "Amount of tokens a `spender` is allowed to operate with.",
            "needed": "Minimum amount required to perform a transfer.",
            "spender": "Address that may be allowed to operate on tokens without being their owner."
          }
        }
      ],
      "ERC20InsufficientBalance(address,uint256,uint256)": [
        {
          "details": "Indicates an error related to the current `balance` of a `sender`. Used in transfers.",
          "params": {
            "balance": "Current balance for the interacting account.",
            "needed": "Minimum amount required to perform a transfer.",
            "sender": "Address whose tokens are being transferred."
          }
        }
      ],
      "ERC20InvalidApprover(address)": [
        {
          "details": "Indicates a failure with the `approver` of a token to be approved. Used in approvals.",
          "params": {
            "approver": "Address initiating an approval operation."
          }
        }
      ],
      "ERC20InvalidReceiver(address)": [
        {
          "details": "Indicates a failure with the token `receiver`. Used in transfers.",
          "params": {
            "receiver": "Address to which tokens are being transferred."
          }
        }
      ],
      "ERC20InvalidSender(address)": [
        {
          "details": "Indicates a failure with the token `sender`. Used in transfers.",
          "params": {
            "sender": "Address whose tokens are being transferred."
          }
        }
      ],
      "ERC20InvalidSpender(address)": [
        {
          "details": "Indicates a failure with the `spender` to be approved. Used in approvals.",
          "params": {
            "spender": "Address that may be allowed to operate on tokens without being their owner."
          }
        }
      ]
    },
    "events": {
      "Approval(address,address,uint256)": {
        "details": "Emitted when the allowance of a `spender` for an `owner` is set by a call to {approve}. `value` is the new allowance."
      },
      "RoleAdminChanged(bytes32,bytes32,bytes32)": {
        "details": "Emitted when `newAdminRole` is set as ``role``'s admin role, replacing `previousAdminRole` `DEFAULT_ADMIN_ROLE` is the starting admin for all roles, despite {RoleAdminChanged} not being emitted signaling this."
      },
      "RoleGranted(bytes32,address,address)": {
        "details": "Emitted when `account` is granted `role`. `sender` is the account that originated the contract call, an admin role bearer except when using {AccessControl-_setupRole}."
      },
      "RoleRevoked(bytes32,address,address)": {
        "details": "Emitted when `account` is revoked `role`. `sender` is the account that originated the contract call:   - if using `revokeRole`, it is the admin role bearer   - if using `renounceRole`, it is the role bearer (i.e. `account`)"
      },
      "Transfer(address,address,uint256)": {
        "details": "Emitted when `value` tokens are moved from one account (`from`) to another (`to`). Note that `value` may be zero."
      }
    },
    "kind": "dev",
    "methods": {
      "allowance(address,address)": {
        "details": "See {IERC20-allowance}."
      },
      "approve(address,uint256)": {
        "details": "See {IERC20-approve}. NOTE: If `value` is the maximum `uint256`, the allowance is not updated on `transferFrom`. This is semantically equivalent to an infinite approval. Requirements: - `spender` cannot be the zero address."
      },
      "balanceOf(address)": {
        "details": "See {IERC20-balanceOf}."
      },
      "getRoleAdmin(bytes32)": {
        "details": "Returns the admin role that controls `role`. See {grantRole} and {revokeRole}. To change a role's admin, use {_setRoleAdmin}."
      },
      "getRoleMember(bytes32,uint256)": {
        "details": "Returns one of the accounts that have `role`. `index` must be a value between 0 and {getRoleMemberCount}, non-inclusive. Role bearers are not sorted in any particular way, and their ordering may change at any point. WARNING: When using {getRoleMember} and {getRoleMemberCount}, make sure you perform all queries on the same block. See the following https://forum.openzeppelin.com/t/iterating-over-elements-on-enumerableset-in-openzeppelin-contracts/2296[forum post] for more information."
      },
      "getRoleMemberCount(bytes32)": {
        "details": "Returns the number of accounts that have `role`. Can be used together with {getRoleMember} to enumerate all bearers of a role."
      },
      "grantRole(bytes32,address)": {
        "details": "Grants `role` to `account`. If `account` had not been already granted `role`, emits a {RoleGranted} event. Requirements: - the caller must have ``role``'s admin role. May emit a {RoleGranted} event."
      },
      "hasRole(bytes32,address)": {
        "details": "Returns `true` if `account` has been granted `role`."
      },
      "name()": {
        "details": "Returns the name of the token."
      },
      "renounceRole(bytes32,address)": {
        "details": "Revokes `role` from the calling account. Roles are often managed via {grantRole} and {revokeRole}: this function's purpose is to provide a mechanism for accounts to lose their privileges if they are compromised (such as when a trusted device is misplaced). If the calling account had been revoked `role`, emits a {RoleRevoked} event. Requirements: - the caller must be `callerConfirmation`. May emit a {RoleRevoked} event."
      },
      "revokeRole(bytes32,address)": {
        "details": "Revokes `role` from `account`. If `account` had been granted `role`, emits a {RoleRevoked} event. Requirements: - the caller must have ``role``'s admin role. May emit a {RoleRevoked} event."
      },
      "supportsInterface(bytes4)": {
        "details": "See {IERC165-supportsInterface}."
      },
      "symbol()": {
        "details": "Returns the symbol of the token, usually a shorter version of the name."
      },
      "totalSupply()": {
        "details": "See {IERC20-totalSupply}."
      },
      "transfer(address,uint256)": {
        "details": "See {IERC20-transfer}. Requirements: - `to` cannot be the zero address. - the caller must have a balance of at least `value`."
      },
      "transferFrom(address,address,uint256)": {
        "details": "See {IERC20-transferFrom}. Emits an {Approval} event indicating the updated allowance. This is not required by the EIP. See the note at the beginning of {ERC20}. NOTE: Does not update the allowance if the current allowance is the maximum `uint256`. Requirements: - `from` and `to` cannot be the zero address. - `from` must have a balance of at least `value`. - the caller must have allowance for ``from``'s tokens of at least `value`."
      }
    },
    "version": 1
  },
  "userdoc": {
    "kind": "user",
    "methods": {},
    "version": 1
  },
  "storageLayout": {
    "storage": [
      {
        "astId": 26,
        "contract": "contracts/RoomCoin.sol:RoomCoin",
        "label": "_roles",
        "offset": 0,
        "slot": "0",
        "type": "t_mapping(t_bytes32,t_struct(RoleData)21_storage)"
      },
      {
        "astId": 548,
        "contract": "contracts/RoomCoin.sol:RoomCoin",
        "label": "_roleMembers",
        "offset": 0,
        "slot": "1",
        "type": "t_mapping(t_bytes32,t_struct(AddressSet)2421_storage)"
      },
      {
        "astId": 854,
        "contract": "contracts/RoomCoin.sol:RoomCoin",
        "label": "_balances",
        "offset": 0,
        "slot": "2",
        "type": "t_mapping(t_address,t_uint256)"
      },
      {
        "astId": 860,
        "contract": "contracts/RoomCoin.sol:RoomCoin",
        "label": "_allowances",
        "offset": 0,
        "slot": "3",
        "type": "t_mapping(t_address,t_mapping(t_address,t_uint256))"
      },
      {
        "astId": 862,
        "contract": "contracts/RoomCoin.sol:RoomCoin",
        "label": "_totalSupply",
        "offset": 0,
        "slot": "4",
        "type": "t_uint256"
      },
      {
        "astId": 864,
        "contract": "contracts/RoomCoin.sol:RoomCoin",
        "label": "_name",
        "offset": 0,
        "slot": "5",
        "type": "t_string_storage"
      },
      {
        "astId": 866,
        "contract": "contracts/RoomCoin.sol:RoomCoin",
        "label": "_symbol",
        "offset": 0,
        "slot": "6",
        "type": "t_string_storage"
      },
      {
        "astId": 2732,
        "contract": "contracts/RoomCoin.sol:RoomCoin",
        "label": "startBlock",
        "offset": 0,
        "slot": "7",
        "type": "t_uint256"
      },
      {
        "astId": 2734,
        "contract": "contracts/RoomCoin.sol:RoomCoin",
        "label": "fee",
        "offset": 0,
        "slot": "8",
        "type": "t_uint256"
      },
      {
        "astId": 2736,
        "contract": "contracts/RoomCoin.sol:RoomCoin",
        "label": "blockTimeout",
        "offset": 0,
        "slot": "9",
        "type": "t_uint256"
      },
      {
        "astId": 2738,
        "contract": "contracts/RoomCoin.sol:RoomCoin",
        "label": "deadBlocks",
        "offset": 0,
        "slot": "10",
        "type": "t_uint256"
      },
      {
        "astId": 2740,
        "contract": "contracts/RoomCoin.sol:RoomCoin",
        "label": "maxTxAmount",
        "offset": 0,
        "slot": "11",
        "type": "t_uint256"
      },
      {
        "astId": 2742,
        "contract": "contracts/RoomCoin.sol:RoomCoin",
        "label": "isTradingEnabled",
        "offset": 0,
        "slot": "12",
        "type": "t_bool"
      },
      {
        "astId": 2744,
        "contract": "contracts/RoomCoin.sol:RoomCoin",
        "label": "antibot",
        "offset": 1,
        "slot": "12",
        "type": "t_bool"
      },
      {
        "astId": 2748,
        "contract": "contracts/RoomCoin.sol:RoomCoin",
        "label": "isBlacklisted",
        "offset": 0,
        "slot": "13",
        "type": "t_mapping(t_address,t_bool)"
      },
      {
        "astId": 2752,
        "contract": "contracts/RoomCoin.sol:RoomCoin",
        "label": "isWhitelisted",
        "offset": 0,
        "slot": "14",
        "type": "t_mapping(t_address,t_bool)"
      },
      {
        "astId": 2756,
        "contract": "contracts/RoomCoin.sol:RoomCoin",
        "label": "isDisabledFee",
        "offset": 0,
        "slot": "15",
        "type": "t_mapping(t_address,t_bool)"
      },
      {
        "astId": 2760,
        "contract": "contracts/RoomCoin.sol:RoomCoin",
        "label": "lastTransfer",
        "offset": 0,
        "slot": "16",
        "type": "t_mapping(t_address,t_uint256)"
      }
    ],
    "types": {
      "t_address": {
        "encoding": "inplace",
        "label": "address",
        "numberOfBytes": "20"
      },
      "t_array(t_bytes32)dyn_storage": {
        "base": "t_bytes32",
        "encoding": "dynamic_array",
        "label": "bytes32[]",
        "numberOfBytes": "32"
      },
      "t_bool": {
        "encoding": "inplace",
        "label": "bool",
        "numberOfBytes": "1"
      },
      "t_bytes32": {
        "encoding": "inplace",
        "label": "bytes32",
        "numberOfBytes": "32"
      },
      "t_mapping(t_address,t_bool)": {
        "encoding": "mapping",
        "key": "t_address",
        "label": "mapping(address => bool)",
        "numberOfBytes": "32",
        "value": "t_bool"
      },
      "t_mapping(t_address,t_mapping(t_address,t_uint256))": {
        "encoding": "mapping",
        "key": "t_address",
        "label": "mapping(address => mapping(address => uint256))",
        "numberOfBytes": "32",
        "value": "t_mapping(t_address,t_uint256)"
      },
      "t_mapping(t_address,t_uint256)": {
        "encoding": "mapping",
        "key": "t_address",
        "label": "mapping(address => uint256)",
        "numberOfBytes": "32",
        "value": "t_uint256"
      },
      "t_mapping(t_bytes32,t_struct(AddressSet)2421_storage)": {
        "encoding": "mapping",
        "key": "t_bytes32",
        "label": "mapping(bytes32 => struct EnumerableSet.AddressSet)",
        "numberOfBytes": "32",
        "value": "t_struct(AddressSet)2421_storage"
      },
      "t_mapping(t_bytes32,t_struct(RoleData)21_storage)": {
        "encoding": "mapping",
        "key": "t_bytes32",
        "label": "mapping(bytes32 => struct AccessControl.RoleData)",
        "numberOfBytes": "32",
        "value": "t_struct(RoleData)21_storage"
      },
      "t_mapping(t_bytes32,t_uint256)": {
        "encoding": "mapping",
        "key": "t_bytes32",
        "label": "mapping(bytes32 => uint256)",
        "numberOfBytes": "32",
        "value": "t_uint256"
      },
      "t_string_storage": {
        "encoding": "bytes",
        "label": "string",
        "numberOfBytes": "32"
      },
      "t_struct(AddressSet)2421_storage": {
        "encoding": "inplace",
        "label": "struct EnumerableSet.AddressSet",
        "members": [
          {
            "astId": 2420,
            "contract": "contracts/RoomCoin.sol:RoomCoin",
            "label": "_inner",
            "offset": 0,
            "slot": "0",
            "type": "t_struct(Set)2106_storage"
          }
        ],
        "numberOfBytes": "64"
      },
      "t_struct(RoleData)21_storage": {
        "encoding": "inplace",
        "label": "struct AccessControl.RoleData",
        "members": [
          {
            "astId": 18,
            "contract": "contracts/RoomCoin.sol:RoomCoin",
            "label": "hasRole",
            "offset": 0,
            "slot": "0",
            "type": "t_mapping(t_address,t_bool)"
          },
          {
            "astId": 20,
            "contract": "contracts/RoomCoin.sol:RoomCoin",
            "label": "adminRole",
            "offset": 0,
            "slot": "1",
            "type": "t_bytes32"
          }
        ],
        "numberOfBytes": "64"
      },
      "t_struct(Set)2106_storage": {
        "encoding": "inplace",
        "label": "struct EnumerableSet.Set",
        "members": [
          {
            "astId": 2101,
            "contract": "contracts/RoomCoin.sol:RoomCoin",
            "label": "_values",
            "offset": 0,
            "slot": "0",
            "type": "t_array(t_bytes32)dyn_storage"
          },
          {
            "astId": 2105,
            "contract": "contracts/RoomCoin.sol:RoomCoin",
            "label": "_positions",
            "offset": 0,
            "slot": "1",
            "type": "t_mapping(t_bytes32,t_uint256)"
          }
        ],
        "numberOfBytes": "64"
      },
      "t_uint256": {
        "encoding": "inplace",
        "label": "uint256",
        "numberOfBytes": "32"
      }
    }
  }
}