{
  "address": "0x152Be8aF62bFd0FA8f07c287b3DB14F04dEF1A0d",
  "abi": [
    {
      "inputs": [
        {
          "internalType": "address",
          "name": "initialOwner_",
          "type": "address"
        },
        {
          "internalType": "address",
          "name": "tokenAddress_",
          "type": "address"
        },
        {
          "internalType": "address",
          "name": "usdAddress_",
          "type": "address"
        },
        {
          "internalType": "address",
          "name": "marketingAddress_",
          "type": "address"
        },
        {
          "internalType": "address",
          "name": "teamAddress_",
          "type": "address"
        },
        {
          "internalType": "address",
          "name": "reserveAddress_",
          "type": "address"
        },
        {
          "internalType": "address",
          "name": "liquidityAddress_",
          "type": "address"
        }
      ],
      "stateMutability": "nonpayable",
      "type": "constructor"
    },
    {
      "inputs": [
        {
          "internalType": "address",
          "name": "target",
          "type": "address"
        }
      ],
      "name": "AddressEmptyCode",
      "type": "error"
    },
    {
      "inputs": [
        {
          "internalType": "address",
          "name": "account",
          "type": "address"
        }
      ],
      "name": "AddressInsufficientBalance",
      "type": "error"
    },
    {
      "inputs": [],
      "name": "FailedInnerCall",
      "type": "error"
    },
    {
      "inputs": [
        {
          "internalType": "address",
          "name": "owner",
          "type": "address"
        }
      ],
      "name": "OwnableInvalidOwner",
      "type": "error"
    },
    {
      "inputs": [
        {
          "internalType": "address",
          "name": "account",
          "type": "address"
        }
      ],
      "name": "OwnableUnauthorizedAccount",
      "type": "error"
    },
    {
      "inputs": [],
      "name": "ReentrancyGuardReentrantCall",
      "type": "error"
    },
    {
      "inputs": [
        {
          "internalType": "address",
          "name": "token",
          "type": "address"
        }
      ],
      "name": "SafeERC20FailedOperation",
      "type": "error"
    },
    {
      "anonymous": false,
      "inputs": [
        {
          "indexed": true,
          "internalType": "address",
          "name": "_spender",
          "type": "address"
        },
        {
          "indexed": false,
          "internalType": "uint256",
          "name": "_amountreceive",
          "type": "uint256"
        },
        {
          "indexed": false,
          "internalType": "uint256",
          "name": "_amountsend",
          "type": "uint256"
        }
      ],
      "name": "Buy",
      "type": "event"
    },
    {
      "anonymous": false,
      "inputs": [
        {
          "indexed": true,
          "internalType": "address",
          "name": "_claimer",
          "type": "address"
        },
        {
          "indexed": false,
          "internalType": "uint256",
          "name": "_amount",
          "type": "uint256"
        }
      ],
      "name": "Claim",
      "type": "event"
    },
    {
      "anonymous": false,
      "inputs": [
        {
          "indexed": true,
          "internalType": "address",
          "name": "previousOwner",
          "type": "address"
        },
        {
          "indexed": true,
          "internalType": "address",
          "name": "newOwner",
          "type": "address"
        }
      ],
      "name": "OwnershipTransferred",
      "type": "event"
    },
    {
      "anonymous": false,
      "inputs": [
        {
          "indexed": true,
          "internalType": "address",
          "name": "_activator",
          "type": "address"
        },
        {
          "indexed": false,
          "internalType": "string",
          "name": "_typeoperation",
          "type": "string"
        }
      ],
      "name": "Phase",
      "type": "event"
    },
    {
      "inputs": [],
      "name": "avalableToClaimGlobal",
      "outputs": [
        {
          "internalType": "uint256",
          "name": "",
          "type": "uint256"
        }
      ],
      "stateMutability": "view",
      "type": "function"
    },
    {
      "inputs": [
        {
          "internalType": "address",
          "name": "",
          "type": "address"
        }
      ],
      "name": "balance",
      "outputs": [
        {
          "internalType": "uint256",
          "name": "",
          "type": "uint256"
        }
      ],
      "stateMutability": "view",
      "type": "function"
    },
    {
      "inputs": [
        {
          "internalType": "address",
          "name": "",
          "type": "address"
        }
      ],
      "name": "balanceInUSD",
      "outputs": [
        {
          "internalType": "uint256",
          "name": "",
          "type": "uint256"
        }
      ],
      "stateMutability": "view",
      "type": "function"
    },
    {
      "inputs": [
        {
          "internalType": "uint256",
          "name": "amountUSD_",
          "type": "uint256"
        }
      ],
      "name": "buy",
      "outputs": [],
      "stateMutability": "nonpayable",
      "type": "function"
    },
    {
      "inputs": [],
      "name": "claim",
      "outputs": [],
      "stateMutability": "nonpayable",
      "type": "function"
    },
    {
      "inputs": [
        {
          "internalType": "address",
          "name": "",
          "type": "address"
        }
      ],
      "name": "claimedByUser",
      "outputs": [
        {
          "internalType": "uint256",
          "name": "",
          "type": "uint256"
        }
      ],
      "stateMutability": "view",
      "type": "function"
    },
    {
      "inputs": [],
      "name": "cliff",
      "outputs": [
        {
          "internalType": "uint256",
          "name": "",
          "type": "uint256"
        }
      ],
      "stateMutability": "view",
      "type": "function"
    },
    {
      "inputs": [],
      "name": "distributionBUSD",
      "outputs": [],
      "stateMutability": "nonpayable",
      "type": "function"
    },
    {
      "inputs": [],
      "name": "liquidityAddress",
      "outputs": [
        {
          "internalType": "address",
          "name": "",
          "type": "address"
        }
      ],
      "stateMutability": "view",
      "type": "function"
    },
    {
      "inputs": [],
      "name": "liquidityPercent",
      "outputs": [
        {
          "internalType": "uint256",
          "name": "",
          "type": "uint256"
        }
      ],
      "stateMutability": "view",
      "type": "function"
    },
    {
      "inputs": [],
      "name": "marketingAddress",
      "outputs": [
        {
          "internalType": "address",
          "name": "",
          "type": "address"
        }
      ],
      "stateMutability": "view",
      "type": "function"
    },
    {
      "inputs": [],
      "name": "marketingPercent",
      "outputs": [
        {
          "internalType": "uint256",
          "name": "",
          "type": "uint256"
        }
      ],
      "stateMutability": "view",
      "type": "function"
    },
    {
      "inputs": [],
      "name": "maxUsdAmount",
      "outputs": [
        {
          "internalType": "uint256",
          "name": "",
          "type": "uint256"
        }
      ],
      "stateMutability": "view",
      "type": "function"
    },
    {
      "inputs": [],
      "name": "minUsdAmount",
      "outputs": [
        {
          "internalType": "uint256",
          "name": "",
          "type": "uint256"
        }
      ],
      "stateMutability": "view",
      "type": "function"
    },
    {
      "inputs": [],
      "name": "nextUnlock",
      "outputs": [
        {
          "internalType": "uint256",
          "name": "",
          "type": "uint256"
        }
      ],
      "stateMutability": "view",
      "type": "function"
    },
    {
      "inputs": [],
      "name": "owner",
      "outputs": [
        {
          "internalType": "address",
          "name": "",
          "type": "address"
        }
      ],
      "stateMutability": "view",
      "type": "function"
    },
    {
      "inputs": [],
      "name": "percentDeniminator",
      "outputs": [
        {
          "internalType": "uint256",
          "name": "",
          "type": "uint256"
        }
      ],
      "stateMutability": "view",
      "type": "function"
    },
    {
      "inputs": [],
      "name": "priceDeniminator",
      "outputs": [
        {
          "internalType": "uint256",
          "name": "",
          "type": "uint256"
        }
      ],
      "stateMutability": "view",
      "type": "function"
    },
    {
      "inputs": [],
      "name": "renounceOwnership",
      "outputs": [],
      "stateMutability": "nonpayable",
      "type": "function"
    },
    {
      "inputs": [],
      "name": "reserveAddress",
      "outputs": [
        {
          "internalType": "address",
          "name": "",
          "type": "address"
        }
      ],
      "stateMutability": "view",
      "type": "function"
    },
    {
      "inputs": [],
      "name": "reservePercent",
      "outputs": [
        {
          "internalType": "uint256",
          "name": "",
          "type": "uint256"
        }
      ],
      "stateMutability": "view",
      "type": "function"
    },
    {
      "inputs": [],
      "name": "resumeSeed",
      "outputs": [],
      "stateMutability": "nonpayable",
      "type": "function"
    },
    {
      "inputs": [],
      "name": "seedIsStarted",
      "outputs": [
        {
          "internalType": "bool",
          "name": "",
          "type": "bool"
        }
      ],
      "stateMutability": "view",
      "type": "function"
    },
    {
      "inputs": [],
      "name": "startSeed",
      "outputs": [],
      "stateMutability": "nonpayable",
      "type": "function"
    },
    {
      "inputs": [],
      "name": "startUnlock",
      "outputs": [
        {
          "internalType": "uint256",
          "name": "",
          "type": "uint256"
        }
      ],
      "stateMutability": "view",
      "type": "function"
    },
    {
      "inputs": [],
      "name": "startVesting",
      "outputs": [],
      "stateMutability": "nonpayable",
      "type": "function"
    },
    {
      "inputs": [],
      "name": "stopSeed",
      "outputs": [],
      "stateMutability": "nonpayable",
      "type": "function"
    },
    {
      "inputs": [],
      "name": "teamAddress",
      "outputs": [
        {
          "internalType": "address",
          "name": "",
          "type": "address"
        }
      ],
      "stateMutability": "view",
      "type": "function"
    },
    {
      "inputs": [],
      "name": "teamPercent",
      "outputs": [
        {
          "internalType": "uint256",
          "name": "",
          "type": "uint256"
        }
      ],
      "stateMutability": "view",
      "type": "function"
    },
    {
      "inputs": [],
      "name": "tgePercent",
      "outputs": [
        {
          "internalType": "uint256",
          "name": "",
          "type": "uint256"
        }
      ],
      "stateMutability": "view",
      "type": "function"
    },
    {
      "inputs": [],
      "name": "tokenPriceUSD",
      "outputs": [
        {
          "internalType": "uint256",
          "name": "",
          "type": "uint256"
        }
      ],
      "stateMutability": "view",
      "type": "function"
    },
    {
      "inputs": [],
      "name": "tokensSoldAmount",
      "outputs": [
        {
          "internalType": "uint256",
          "name": "",
          "type": "uint256"
        }
      ],
      "stateMutability": "view",
      "type": "function"
    },
    {
      "inputs": [],
      "name": "tokensSoldAmountMax",
      "outputs": [
        {
          "internalType": "uint256",
          "name": "",
          "type": "uint256"
        }
      ],
      "stateMutability": "view",
      "type": "function"
    },
    {
      "inputs": [
        {
          "internalType": "address",
          "name": "newOwner",
          "type": "address"
        }
      ],
      "name": "transferOwnership",
      "outputs": [],
      "stateMutability": "nonpayable",
      "type": "function"
    },
    {
      "inputs": [],
      "name": "unlockPercent",
      "outputs": [
        {
          "internalType": "uint256",
          "name": "",
          "type": "uint256"
        }
      ],
      "stateMutability": "view",
      "type": "function"
    },
    {
      "inputs": [],
      "name": "unlockPeriod",
      "outputs": [
        {
          "internalType": "uint256",
          "name": "",
          "type": "uint256"
        }
      ],
      "stateMutability": "view",
      "type": "function"
    },
    {
      "inputs": [],
      "name": "vestingIsStarted",
      "outputs": [
        {
          "internalType": "bool",
          "name": "",
          "type": "bool"
        }
      ],
      "stateMutability": "view",
      "type": "function"
    }
  ],
  "transactionHash": "0x20cc0786c996af2a20ceffa0e000e35b9306a3c7ad81dccfe94cc02e4c74e257",
  "args": [
    "0xC9FEed17195f6758bb91F0D5201D7491A8564d86",
    "0xCBB82Ad9C73D063F39d2da71ce1CA808C91E30D8",
    "0x5CDF6B2ADe8f268d0F6Fe0D130Be47442f76EaFE",
    "0x3B99E8156f17fF138d32b52A926A8d813b804D93",
    "0x6F0A291102133C45371a8c476767168bB8092e99",
    "0xAF0ce382B0A2f08121d1F5D543815Ac3657e8a6f",
    "0x5af4009732e8b23FAdA69476F7757cB17Ab31E71"
  ],
  "numDeployments": 1,
  "solcInputHash": "cf9088ae5b9b29f2b7555e483a5d65aa",
  "bytecode": "0x60806040523480156200001157600080fd5b50604051620018e9380380620018e9833981016040819052620000349162000167565b866001600160a01b0381166200006457604051631e4fbdf760e01b81526000600482015260240160405180910390fd5b6200006f81620000fa565b5060018055600e80546001600160a01b039788166001600160a01b031991821617909155600f805496881696821696909617909555600a8054948716620100000262010000600160b01b031990951694909417909355600b805492861692851692909217909155600c8054918516918416919091179055600d805491909316911617905550620001fc565b600080546001600160a01b038381166001600160a01b0319831681178455604051919092169283917f8be0079c531659141344cd1fd0a4f28419497f9722a3daafe3b4186f6b6457e09190a35050565b80516001600160a01b03811681146200016257600080fd5b919050565b600080600080600080600060e0888a0312156200018357600080fd5b6200018e886200014a565b96506200019e602089016200014a565b9550620001ae604089016200014a565b9450620001be606089016200014a565b9350620001ce608089016200014a565b9250620001de60a089016200014a565b9150620001ee60c089016200014a565b905092959891949750929550565b6116dd806200020c6000396000f3fe608060405234801561001057600080fd5b50600436106102775760003560e01c80638da5cb5b11610160578063d8020a18116100d8578063e3d670d71161008c578063f79ed94b11610071578063f79ed94b14610476578063f8c7746314610431578063fd1813d61461048957600080fd5b8063e3d670d714610443578063f2fde38b1461046357600080fd5b8063deb36e32116100bd578063deb36e3214610429578063e164ac5014610431578063e2f0f42d1461043a57600080fd5b8063d8020a181461040d578063d96a094a1461041657600080fd5b8063a4a75c6e1161012f578063b068375511610114578063b0683755146103da578063b7f9b17c146103e3578063ce8e48301461040357600080fd5b8063a4a75c6e146103b8578063a5ece941146103c157600080fd5b80638da5cb5b14610370578063986e9e1214610381578063a114f2d91461039e578063a2fbbb1e146103b057600080fd5b80633bc78c3e116101f357806359fa7a68116101c2578063715018a6116101a7578063715018a614610356578063756688c01461035e5780637baf5b841461036757600080fd5b806359fa7a68146103435780636fe5e4161461034c57600080fd5b80633bc78c3e14610323578063407fcc311461032b5780634e71d92d1461033357806354fefb231461033b57600080fd5b80631c75f0851161024a57806321a418ac1161022f57806321a418ac146102ff57806322cc9e6a146103085780633221c93f1461031057600080fd5b80631c75f085146102ca57806320d3a0b4146102f557600080fd5b806302cb12441461027c57806313d033c014610298578063164894d4146102a057806318c41107146102aa575b600080fd5b61028560085481565b6040519081526020015b60405180910390f35b610285600481565b6102a8610492565b005b6102856102b83660046113dc565b60036020526000908152604090205481565b600b546102dd906001600160a01b031681565b6040516001600160a01b03909116815260200161028f565b61028562278d0081565b61028561271081565b6102a8610520565b600d546102dd906001600160a01b031681565b610285606481565b610285602881565b6102a861069c565b6102a8610880565b61028560075481565b610285621e848081565b6102a8610917565b61028561018c81565b61028560095481565b6000546001600160a01b03166102dd565b600a5461038e9060ff1681565b604051901515815260200161028f565b600a5461038e90610100900460ff1681565b6102a8610929565b61028560065481565b600a546102dd906201000090046001600160a01b031681565b61028561104081565b6102856103f13660046113dc565b60046020526000908152604090205481565b6102856207a12081565b6102856109c481565b6102a8610424366004611405565b610b1e565b6102a8610e4d565b61028561068681565b6102856101f481565b6102856104513660046113dc565b60026020526000908152604090205481565b6102a86104713660046113dc565b610fd8565b600c546102dd906001600160a01b031681565b61028560055481565b61049a611031565b600a5460ff166104a957600080fd5b600a805460ff19169055604080518082018252600481527f73746f70000000000000000000000000000000000000000000000000000000006020820152905133917fd556791afcc1f4829a01540179d5184d0880d8677718707d8ae82869897a1a25916105169190611442565b60405180910390a2565b610528611031565b6007541561053557600080fd5b600e546040516370a0823160e01b81523060048201526001600160a01b03909116906370a0823190602401602060405180830381865afa15801561057d573d6000803e3d6000fd5b505050506040513d601f19601f820116820180604052508101906105a19190611493565b6000036105ad57600080fd5b600a5460ff16156105bd57600080fd5b600a805460ff19166001179055600e546040516370a0823160e01b81523060048201526001600160a01b03909116906370a0823190602401602060405180830381865afa158015610612573d6000803e3d6000fd5b505050506040513d601f19601f820116820180604052508101906106369190611493565b600755604080518082018252600581527f73746172740000000000000000000000000000000000000000000000000000006020820152905133917fd556791afcc1f4829a01540179d5184d0880d8677718707d8ae82869897a1a25916105169190611442565b6106a4611077565b600a54610100900460ff166106b857600080fd5b336000908152600260205260409020546106d157600080fd5b6008544211156107215761018c600560008282546106ef91906114db565b90915550506005546127101161071057600019600855612710600555610721565b61071d62278d00426114db565b6008555b6005543360009081526002602052604081205490916127109161074491906114ee565b61074e9190611505565b33600090815260036020526040902054909150811161076c57600080fd5b336000908152600360205260408120546107869083611540565b336000908152600360205260408120805492935083929091906107aa9084906114db565b9091555050600e546040517fa9059cbb000000000000000000000000000000000000000000000000000000008152336004820152602481018390526001600160a01b039091169063a9059cbb906044016020604051808303816000875af1158015610819573d6000803e3d6000fd5b505050506040513d601f19601f8201168201806040525081019061083d9190611553565b5060405181815233907f47cee97cb7acd717b3c0aa1435d004cd5b3c8c57d70dbceb4e4458bbd60e39d49060200160405180910390a2505061087e60018055565b565b610888611031565b60075460000361089757600080fd5b600a5460ff16156108a757600080fd5b600a805460ff19166001179055604080518082018252600681527f726573756d6500000000000000000000000000000000000000000000000000006020820152905133917fd556791afcc1f4829a01540179d5184d0880d8677718707d8ae82869897a1a25916105169190611442565b61091f611031565b61087e60006110ba565b610931611031565b600f546040516370a0823160e01b81523060048201526000916001600160a01b0316906370a0823190602401602060405180830381865afa15801561097a573d6000803e3d6000fd5b505050506040513d601f19601f8201168201806040525081019061099e9190611493565b9050600081116109ad57600080fd5b600a5460ff16156109bd57600080fd5b60006127106109ce6109c4846114ee565b6109d89190611505565b905060006127106109eb610686856114ee565b6109f59190611505565b90506000612710610a08610686866114ee565b610a129190611505565b90506000612710610a25611040876114ee565b610a2f9190611505565b600a54600f54919250610a55916001600160a01b03908116916201000090041686611122565b600b54600f54610a72916001600160a01b03918216911685611122565b600c54600f54610a8f916001600160a01b03918216911684611122565b600d54600f54610aac916001600160a01b03918216911683611122565b604080518082018252601081527f646973747269627574696f6e42555344000000000000000000000000000000006020820152905133917fd556791afcc1f4829a01540179d5184d0880d8677718707d8ae82869897a1a2591610b0f9190611442565b60405180910390a25050505050565b610b26611077565b60075460065410610b3657600080fd5b600a5460ff16610b4557600080fd5b600f54604080517f313ce56700000000000000000000000000000000000000000000000000000000815290516000926001600160a01b03169163313ce5679160048083019260209291908290030181865afa158015610ba8573d6000803e3d6000fd5b505050506040513d601f19601f82011682018060405250810190610bcc9190611575565b610bd790600a61167c565b90506000600e60009054906101000a90046001600160a01b03166001600160a01b031663313ce5676040518163ffffffff1660e01b81526004016020604051808303816000875af1158015610c30573d6000803e3d6000fd5b505050506040513d601f19601f82011682018060405250810190610c549190611575565b610c5f90600a61167c565b3360009081526002602052604081205491925003610cc1576064610c86836207a1206114ee565b610c909190611505565b831015610c9c57600080fd5b6064610cab83621e84806114ee565b610cb59190611505565b831115610cc157600080fd5b6064610cd083621e84806114ee565b610cda9190611505565b33600090815260046020526040902054610cf59085906114db565b1115610d0057600080fd5b6000610d0d8360286114ee565b6064610d1984876114ee565b610d2391906114ee565b610d2d9190611505565b9050600654600754610d3f9190611540565b811115610d4b57600080fd5b600f54610d63906001600160a01b031633308761119b565b3360009081526004602052604081208054869290610d829084906114db565b90915550503360009081526002602052604081208054839290610da69084906114db565b925050819055508060066000828254610dbf91906114db565b90915550600090506028610dd6846207a1206114ee565b610de09190611505565b604080518481526020810188905291925033917f1cbc5ab135991bd2b6a4b034a04aa2aa086dac1371cb9b16b8b5e2ed6b036bed910160405180910390a280600654600754610e2f9190611540565b1015610e3d57610e3d610492565b50505050610e4a60018055565b50565b610e55611031565b600a5460ff1615610e6557600080fd5b600a54610100900460ff1615610e7a57600080fd5b600a80547fffffffffffffffffffffffffffffffffffffffffffffffffffffffffffff00ff1661010017905542600955610eb8600462278d006114ee565b600954610ec591906114db565b6008556101f4600555600654600754600091610ee091611540565b600e546040517f42966c68000000000000000000000000000000000000000000000000000000008152600481018390529192506001600160a01b0316906342966c68906024016020604051808303816000875af1158015610f45573d6000803e3d6000fd5b505050506040513d601f19601f82011682018060405250810190610f699190611553565b50604080518082018252600c81527f737461727456657374696e6700000000000000000000000000000000000000006020820152905133917fd556791afcc1f4829a01540179d5184d0880d8677718707d8ae82869897a1a2591610fcd9190611442565b60405180910390a250565b610fe0611031565b6001600160a01b038116611028576040517f1e4fbdf7000000000000000000000000000000000000000000000000000000008152600060048201526024015b60405180910390fd5b610e4a816110ba565b6000546001600160a01b0316331461087e576040517f118cdaa700000000000000000000000000000000000000000000000000000000815233600482015260240161101f565b6002600154036110b3576040517f3ee5aeb500000000000000000000000000000000000000000000000000000000815260040160405180910390fd5b6002600155565b600080546001600160a01b038381167fffffffffffffffffffffffff0000000000000000000000000000000000000000831681178455604051919092169283917f8be0079c531659141344cd1fd0a4f28419497f9722a3daafe3b4186f6b6457e09190a35050565b6040516001600160a01b0383811660248301526044820183905261119691859182169063a9059cbb906064015b604051602081830303815290604052915060e01b6020820180517bffffffffffffffffffffffffffffffffffffffffffffffffffffffff83818316178352505050506111da565b505050565b6040516001600160a01b0384811660248301528381166044830152606482018390526111d49186918216906323b872dd9060840161114f565b50505050565b60006111ef6001600160a01b03841683611256565b905080516000141580156112145750808060200190518101906112129190611553565b155b15611196576040517f5274afe70000000000000000000000000000000000000000000000000000000081526001600160a01b038416600482015260240161101f565b60606112648383600061126d565b90505b92915050565b6060814710156112ab576040517fcd78605900000000000000000000000000000000000000000000000000000000815230600482015260240161101f565b600080856001600160a01b031684866040516112c7919061168b565b60006040518083038185875af1925050503d8060008114611304576040519150601f19603f3d011682016040523d82523d6000602084013e611309565b606091505b5091509150611319868383611325565b925050505b9392505050565b60608261133a576113358261139a565b61131e565b815115801561135157506001600160a01b0384163b155b15611393576040517f9996b3150000000000000000000000000000000000000000000000000000000081526001600160a01b038516600482015260240161101f565b508061131e565b8051156113aa5780518082602001fd5b6040517f1425ea4200000000000000000000000000000000000000000000000000000000815260040160405180910390fd5b6000602082840312156113ee57600080fd5b81356001600160a01b038116811461131e57600080fd5b60006020828403121561141757600080fd5b5035919050565b60005b83811015611439578181015183820152602001611421565b50506000910152565b602081526000825180602084015261146181604085016020870161141e565b601f017fffffffffffffffffffffffffffffffffffffffffffffffffffffffffffffffe0169190910160400192915050565b6000602082840312156114a557600080fd5b5051919050565b7f4e487b7100000000000000000000000000000000000000000000000000000000600052601160045260246000fd5b80820180821115611267576112676114ac565b8082028115828204841417611267576112676114ac565b60008261153b577f4e487b7100000000000000000000000000000000000000000000000000000000600052601260045260246000fd5b500490565b81810381811115611267576112676114ac565b60006020828403121561156557600080fd5b8151801515811461131e57600080fd5b60006020828403121561158757600080fd5b815160ff8116811461131e57600080fd5b600181815b808511156115d35781600019048211156115b9576115b96114ac565b808516156115c657918102915b93841c939080029061159d565b509250929050565b6000826115ea57506001611267565b816115f757506000611267565b816001811461160d576002811461161757611633565b6001915050611267565b60ff841115611628576116286114ac565b50506001821b611267565b5060208310610133831016604e8410600b8410161715611656575081810a611267565b6116608383611598565b8060001904821115611674576116746114ac565b029392505050565b600061126460ff8416836115db565b6000825161169d81846020870161141e565b919091019291505056fea26469706673582212209f5579379557ac3ec6d643e50fac62d558a0dc253c4fdb36cae951328a6bb6b764736f6c63430008180033",
  "devdoc": {
    "errors": {
      "AddressEmptyCode(address)": [
        {
          "details": "There's no code at `target` (it is not a contract)."
        }
      ],
      "AddressInsufficientBalance(address)": [
        {
          "details": "The ETH balance of the account is not enough to perform the operation."
        }
      ],
      "FailedInnerCall()": [
        {
          "details": "A call to an address target failed. The target may have reverted."
        }
      ],
      "OwnableInvalidOwner(address)": [
        {
          "details": "The owner is not a valid owner account. (eg. `address(0)`)"
        }
      ],
      "OwnableUnauthorizedAccount(address)": [
        {
          "details": "The caller account is not authorized to perform an operation."
        }
      ],
      "ReentrancyGuardReentrantCall()": [
        {
          "details": "Unauthorized reentrant call."
        }
      ],
      "SafeERC20FailedOperation(address)": [
        {
          "details": "An operation with an ERC20 token failed."
        }
      ]
    },
    "kind": "dev",
    "methods": {
      "owner()": {
        "details": "Returns the address of the current owner."
      },
      "renounceOwnership()": {
        "details": "Leaves the contract without owner. It will not be possible to call `onlyOwner` functions. Can only be called by the current owner. NOTE: Renouncing ownership will leave the contract without an owner, thereby disabling any functionality that is only available to the owner."
      },
      "transferOwnership(address)": {
        "details": "Transfers ownership of the contract to a new account (`newOwner`). Can only be called by the current owner."
      }
    },
    "version": 1
  },
  "userdoc": {
    "kind": "user",
    "methods": {},
    "version": 1
  },
  "storageLayout": {
    "storage": [
      {
        "astId": 8,
        "contract": "contracts/vesting/StrategicRoundLock.sol:StrategicRoundLock",
        "label": "_owner",
        "offset": 0,
        "slot": "0",
        "type": "t_address"
      },
      {
        "astId": 1523,
        "contract": "contracts/vesting/StrategicRoundLock.sol:StrategicRoundLock",
        "label": "_status",
        "offset": 0,
        "slot": "1",
        "type": "t_uint256"
      },
      {
        "astId": 3749,
        "contract": "contracts/vesting/StrategicRoundLock.sol:StrategicRoundLock",
        "label": "balance",
        "offset": 0,
        "slot": "2",
        "type": "t_mapping(t_address,t_uint256)"
      },
      {
        "astId": 3753,
        "contract": "contracts/vesting/StrategicRoundLock.sol:StrategicRoundLock",
        "label": "claimedByUser",
        "offset": 0,
        "slot": "3",
        "type": "t_mapping(t_address,t_uint256)"
      },
      {
        "astId": 3757,
        "contract": "contracts/vesting/StrategicRoundLock.sol:StrategicRoundLock",
        "label": "balanceInUSD",
        "offset": 0,
        "slot": "4",
        "type": "t_mapping(t_address,t_uint256)"
      },
      {
        "astId": 3759,
        "contract": "contracts/vesting/StrategicRoundLock.sol:StrategicRoundLock",
        "label": "avalableToClaimGlobal",
        "offset": 0,
        "slot": "5",
        "type": "t_uint256"
      },
      {
        "astId": 3761,
        "contract": "contracts/vesting/StrategicRoundLock.sol:StrategicRoundLock",
        "label": "tokensSoldAmount",
        "offset": 0,
        "slot": "6",
        "type": "t_uint256"
      },
      {
        "astId": 3763,
        "contract": "contracts/vesting/StrategicRoundLock.sol:StrategicRoundLock",
        "label": "tokensSoldAmountMax",
        "offset": 0,
        "slot": "7",
        "type": "t_uint256"
      },
      {
        "astId": 3765,
        "contract": "contracts/vesting/StrategicRoundLock.sol:StrategicRoundLock",
        "label": "nextUnlock",
        "offset": 0,
        "slot": "8",
        "type": "t_uint256"
      },
      {
        "astId": 3767,
        "contract": "contracts/vesting/StrategicRoundLock.sol:StrategicRoundLock",
        "label": "startUnlock",
        "offset": 0,
        "slot": "9",
        "type": "t_uint256"
      },
      {
        "astId": 3769,
        "contract": "contracts/vesting/StrategicRoundLock.sol:StrategicRoundLock",
        "label": "seedIsStarted",
        "offset": 0,
        "slot": "10",
        "type": "t_bool"
      },
      {
        "astId": 3771,
        "contract": "contracts/vesting/StrategicRoundLock.sol:StrategicRoundLock",
        "label": "vestingIsStarted",
        "offset": 1,
        "slot": "10",
        "type": "t_bool"
      },
      {
        "astId": 3773,
        "contract": "contracts/vesting/StrategicRoundLock.sol:StrategicRoundLock",
        "label": "marketingAddress",
        "offset": 2,
        "slot": "10",
        "type": "t_address"
      },
      {
        "astId": 3775,
        "contract": "contracts/vesting/StrategicRoundLock.sol:StrategicRoundLock",
        "label": "teamAddress",
        "offset": 0,
        "slot": "11",
        "type": "t_address"
      },
      {
        "astId": 3777,
        "contract": "contracts/vesting/StrategicRoundLock.sol:StrategicRoundLock",
        "label": "reserveAddress",
        "offset": 0,
        "slot": "12",
        "type": "t_address"
      },
      {
        "astId": 3779,
        "contract": "contracts/vesting/StrategicRoundLock.sol:StrategicRoundLock",
        "label": "liquidityAddress",
        "offset": 0,
        "slot": "13",
        "type": "t_address"
      },
      {
        "astId": 3782,
        "contract": "contracts/vesting/StrategicRoundLock.sol:StrategicRoundLock",
        "label": "_token",
        "offset": 0,
        "slot": "14",
        "type": "t_contract(IRoomCoin)1645"
      },
      {
        "astId": 3785,
        "contract": "contracts/vesting/StrategicRoundLock.sol:StrategicRoundLock",
        "label": "_usd",
        "offset": 0,
        "slot": "15",
        "type": "t_contract(ERC20)799"
      }
    ],
    "types": {
      "t_address": {
        "encoding": "inplace",
        "label": "address",
        "numberOfBytes": "20"
      },
      "t_bool": {
        "encoding": "inplace",
        "label": "bool",
        "numberOfBytes": "1"
      },
      "t_contract(ERC20)799": {
        "encoding": "inplace",
        "label": "contract ERC20",
        "numberOfBytes": "20"
      },
      "t_contract(IRoomCoin)1645": {
        "encoding": "inplace",
        "label": "contract IRoomCoin",
        "numberOfBytes": "20"
      },
      "t_mapping(t_address,t_uint256)": {
        "encoding": "mapping",
        "key": "t_address",
        "label": "mapping(address => uint256)",
        "numberOfBytes": "32",
        "value": "t_uint256"
      },
      "t_uint256": {
        "encoding": "inplace",
        "label": "uint256",
        "numberOfBytes": "32"
      }
    }
  }
}